:020000040804EE
:100000000000082499020608E502060841F30408E6
:1000100047F304084DF3040853F3040800000000FC
:1000200000000000000000000000000095780408B7
:10003000E5020608000000002F7904083F79040853
:10004000E5020608E5020608E5020608E5020608DC
:10005000E5020608E5020608E5020608E5020608CC
:10006000E5020608E5020608E5020608E5020608BC
:10007000E5020608E5020608E5020608E5020608AC
:10008000E5020608E5020608E5020608E112060890
:10009000F1120608ED120608FD120608E502060830
:1000A000E5020608E5020608E5020608E50206087C
:1000B000E5020608E5020608E5020608E50206086C
:1000C000E5020608E5020608E5020608E50206085C
:1000D000E5020608E5020608E5020608E50206084C
:1000E000E5020608E502060800000000E502060831
:1000F000E5020608E5020608E5020608E50206082C
:10010000E5020608A1FF0508E5020608E502060863
:10011000E5020608E5020608E5020608E50206080B
:10012000E5020608E5020608E5020608E5020608FB
:10013000E5020608A3A90408E5020608E502060888
:10014000E5020608E50206080000000000000000C5
:10015000E5020608E5020608E5020608E5020608CB
:10016000E5020608E5020608E5020608E5020608BB
:10017000E5020608E5020608E502060800000000A0
:10018000E5020608E5020608E5020608E50206089B
:10019000E5020608E5020608E5020608E50206088B
:1001A000E5020608E5020608E5020608E50206087B
:1001B000E5020608E5020608E5020608E50206086B
:1001C000E5020608E5020608E5020608E50206085B
:1001D000E5020608E5020608E5020608E50206084B
:1001E000E5020608E5020608E5020608E50206083B
:1001F000E5020608E5020608E5020608E50206082B
:10020000E5020608E5020608E5020608E50206081A
:10021000E5020608E5020608E5020608E50206080A
:10022000E5020608E5020608E5020608E5020608FA
:100230000D42040895020608E5020608E5020608D4
:10024000E5020608E5020608E5020608E5020608DA
:10025000E5020608E5020608E5020608E5020608CA
:10026000E5020608E5020608E5020608E5020608BA
:10027000E5020608E5020608E5020608E5020608AA
:10028000E5020608E5020608E5020608000000008F
:10029000E5020608E502060810B5054C237833B9D7
:1002A000044B13B10448AFF300800123237010BD49
:1002B0000019002400000000605C070808B5034B2B
:1002C0001BB103490348AFF3008008BD00000000E4
:1002D00004190024605C0708154B002B08BF134B62
:1002E0009D46A3F5803A00218B460F461348144AD9
:1002F000121A27F035FF0F4B002B00D098470E4BFA
:10030000002B00D098470020002104000D000D486C
:10031000002802D00C4810F009F827F0D5F820008A
:10032000290009F0A5FD10F01DFA00BF000008002B
:100330000000082400000000CD9D040800190024DE
:10034000C01601242D030508000000004B1E02EB1F
:1003500000120F3110B513F8010F12F8014B8B4248
:1003600084EA00041C70F6D110BDC3095A0013447E
:1003700003EBC30383EA4000C0B2704770B5054683
:10038000FFF7F3FF0646FFF7F0FF0446FFF7EDFF28
:1003900001F00102C1F3400312FB05F213FB06F367
:1003A00050404340C1F3800010FB04F05840C0B2FD
:1003B00070BD00002DE9F04F8BB0154602F1FF39FA
:1003C0001446069302F10F0301910393CDE9040152
:1003D000631B069A9A4240F2AC80019A019B02F19B
:1003E0000F004A46013B13F8016F12F8011F8342C8
:1003F00081EA06011170F6D1049A21460020019489
:100400000127FFF7A3FF04F110030793CA461AF868
:10041000013F504AD35C8AF80030039B9A45F6D1DD
:100420006279264663786270627A6271627B637376
:100430006272A27AA378A270A27BA372A379A2713E
:10044000E27BA373E378E270E27AE273E279E3712C
:10045000E272B178043616F8043C16F8032C16F84C
:1004600001BC83EA0200029281EA0B02089382EA4D
:1004700000080992FFF779FF089B5840029B88EA21
:10048000000006F8040C83EA0100FFF76EFF029BF0
:10049000099A584088EA000006F8030C1046FFF756
:1004A00064FF4840089B88EA000006F8020C83EAD3
:1004B0000B00FFF75AFF8BEA0000079B88EA000851
:1004C00006F8018CB342C4D13846049A2146FFF79E
:1004D0003DFF7B1CDFB20A2F98D14B4613F8012F4A
:1004E0001C499A458A5C1A70F8D162792146637872
:1004F0000A20627009F11009627A6271627B63738B
:100500006272A27AA378A270A27BA372A379A2716D
:10051000E27BA373E378E270E27AE273E279E3715B
:10052000E2723446049AFFF711FF039B10330393E2
:100530004EE7069B103B1D44059B9D4207D005F1ED
:10054000100255F8041B954243F8041BF9D10BB077
:10055000BDE8F08F8EFF06082DE9F04F8DB01746ED
:10056000541E1646059302F10F03019302F1100386
:10057000CDE903010093F31B059A9A4240F21281E0
:10058000631C08AD04F1110C1868083353F8041CFF
:100590002A46634503C21546F6D1039A31460A201E
:1005A000FFF7D4FE09230293A27AA37BA273A27958
:1005B000A272A278A370A271E27AE378E270E27B81
:1005C000E372E379E271227BE373237A2272227C65
:1005D0002273227923712346227413F8012F734961
:1005E0008A5C1A70019A9A42F7D1039A31460298AE
:1005F00035460693FFF7AAFE069B95F800B00E213C
:1006000095F801A0043558460793FFF7B7FE0B2174
:1006100006905046FFF7B2FE069A15F8029C0D218F
:10062000424015F8018C4846D2B20692FFF7A6FE6A
:10063000069A092142404046D2B20692FFF79EFE3A
:10064000069A0921504005F8040C5846FFF796FE1B
:100650000E2106905046FFF791FE069A0B2142406C
:100660004846D2B20692FFF789FE069A0D21424013
:100670004046D2B20692FFF781FE069A0D21504005
:1006800005F8030C5846FFF779FE092106905046FD
:10069000FFF774FE069A0E2142404846D2B20692F7
:1006A000FFF76CFE069A0B2142404046D2B20692FA
:1006B000FFF764FE069A0B21504005F8020C5846DD
:1006C000FFF75CFE83460D215046FFF757FE8BEA8D
:1006D000000B092148465FFA8BFBFFF74FFE0E2106
:1006E0008BEA000B4046FFF749FE009B5FFA8BFB4D
:1006F0008BEA000005F8010CAB42079B7FF47DAF4D
:10070000029A013A12F0FF0202927FF44DAFA17AF1
:10071000A27BA173A179A172A178A270A171E17AE3
:10072000E278E170E17BE272E279E171217BE273D0
:10073000227A2172217C217321792271224621742F
:1007400012F8011F19489342415C1170F8D1039AC5
:1007500000203146FFF7FAFD049A049B02F10F00D6
:100760002246013B13F8015F12F8011F984281EA0B
:1007700005011170F6D108AD049A0DF1300C2B462D
:10078000083203CB634542F8080C42F8041C1D46AE
:10079000F5D1019B1034103610330193009B1033B8
:1007A0000093E8E60DB0BDE8F08F00BF8E000708AB
:1007B000F7B50B4600F1B00401F1100253F8045BE9
:1007C000934244F8045BF9D103460C7804310433B6
:1007D00003F8044C11F8034C03F8034C11F8024CD5
:1007E00003F8024C11F8014C914203F8014CECD192
:1007F00004230C30234A0DEB0304234D064600214D
:1008000016F8017B0F5501310429F9D1990717D149
:100810009DF804609DF80770965D9DF805108DF8B1
:1008200007609E089DF806C0515CAE5D12F80CC0D2
:10083000D75D71408DF805C08DF806708DF80410F5
:1008400010F80C1C01339DF8046004302C2B81EA55
:1008500006019DF80560017010F80F1C81EA060181
:100860009DF80660417010F80E1C81EA06019DF8A3
:100870000760817010F80D1C81EA0601C170BDD1BE
:1008800003B0F0BD8EFF060883FF060813F00F0FBC
:1008900001D1FFF78FBD704713F00F0F01D1FFF7A4
:1008A0005BBE704710B5054C23782BB90449054849
:1008B000FFF77EFF0123237010BD00BFE419002461
:1008C0008E0107082419002430B52DED088B83B064
:1008D0000AEE900A09EE101A874888490BEE103A82
:1008E00008EE902A9DED0EAADDED0F9A06F06CFA47
:1008F0008349814806F068FA82497F4806F064FA25
:10090000814B1B78002B00F0DB809FED808A022555
:100910007F490524784806F03FFA6AEE887A009508
:100920007548B7EEE77A53EC172B06F0D1FB7949FF
:10093000714806F031FAB7EEEA7A00946E4853EC4B
:10094000172B06F0C5FB74496B4806F03DFADFED46
:10095000737AB4EEE79AF1EE10FA40F1AF80F5EE5B
:10096000C08AF1EE10FA40F3A9806D49624806F0A2
:1009700013FA69EE087A00955F48B7EEE77A53EC10
:10098000172B06F0A5FB67495B4806F005FA68EEF1
:10099000887A00955848B7EEE77A53EC172B06F0A3
:1009A00097FB5C49544806F0F7F9B7EEC97A009412
:1009B000514853EC172B06F08BFB5A494E4806F072
:1009C000EBF9B7EEE87A00944B4853EC172B06F09E
:1009D0007FFB51494848022406F0F6F9524946483F
:1009E000052506F0D9F9B7EECB7A032342480093E8
:1009F00053EC172B06F06CFB4C493F4806F0E4F92A
:100A00004B493D4806F0C8F96AEE087A00943A4826
:100A1000B7EEE77A53EC172B06F05AFB45493648F8
:100A200006F0BAF9B7EECA7A0095334853EC172BA3
:100A300006F04EFB4049304806F0C6F93F492E48C3
:100A400006F0AAF929EE888A00942B48B7EEC87AF6
:100A500053EC172B06F03CFB3949274806F09CF96C
:100A6000B7EEE97A0095244853EC172B06F030FBDB
:100A70003449214806F0A8F933491F4806F08CF99B
:100A800000941D481AA3D3E9002306F021FB2F4947
:100A9000194806F081F9009400222D4B164806F003
:100AA00017FB2C49144806F08FF91649124803B079
:100AB000BDEC088BBDE8304006F086B9264989E7D1
:100AC00026490D4806F080F923490B4806F07CF9C9
:100AD0002349094806F078F92249074806F074F9D5
:100AE0002149054806F070F92049DBE7AFF30080A3
:100AF0009A9999999999B93F4C3C002430FD060880
:100B00005CFD060831FD06088C2F002400007A44A5
:100B100086FD060898FD06089EFD0608003C1C465A
:100B2000A2FD0608B2FD0608C9FD0608DBFD0608A1
:100B3000DEFD0608EEFD0608F4FD0608F8FD0608D1
:100B40000DFE060813FE060817FE060824FE06081A
:100B5000000008402BFE0608B6FD06082EFE06081B
:100B600043FE060858FE06086BFE060883FE0608CC
:100B700010B58CB0044605A80EF022FD01A810F0B7
:100B800053F8029A059B2046214913440B60214BE0
:100B900008991960204B21491A6028F0EDFA18B124
:100BA0001F4B1B78002B31D01E491F4806F0F4F86C
:100BB00021461D4806F0F0F81C491B4806F0ECF8E9
:100BC0000A220599184806F054F91949164806F002
:100BD000E3F80A220899144806F04BF9154912481F
:100BE00006F0DAF8059B08990A220F48C91A06F0A0
:100BF00040F911490C4806F0CFF802990A220A4838
:100C000006F037F90D49084806F0DEF80CB010BDC3
:100C10009C2F0024982F0024902F00248CF5060888
:100C2000E526002491F506084C3C00249AF50608B8
:100C3000A3F50608A5F50608B4F506086239070805
:100C4000F0B52DED068B97B0BD4CB7EE009B07A815
:100C50000EF0B6FC03A80FF0E7FF049A079BB94912
:100C60001344B948236006F0AFF8B849B64806F017
:100C7000ABF8B749B44806F0A7F8B649B24806F051
:100C80008BF8B549B04806F09FF8B449AE4806F075
:100C900083F80A2221680224AB4806F0EAF8B0493A
:100CA000A94806F091F8AF49A74806F08DF80EA8BC
:100CB0000FF098FFDDE9100124F0B4F908EE100AF6
:100CC000DDE90E0124F0AEF907EE900AA64988EEA0
:100CD000277A9D489FED98ABB7EEC77A39EE477BF0
:100CE00027EE0A7BB7EEC78B06F056F800949648BD
:100CF000B7EEC87A53EC172B06F0EAF99B499248F5
:100D000006F062F89A49904806F046F8994B8E48EA
:100D1000D3ED007A0094B7EEE77A53EC172B06F088
:100D2000D7F99549884806F04FF89449864806F067
:100D300033F8934B8448D3ED007A0094B7EEE77A0A
:100D400053EC172B06F0C4F98B497F4806F03CF8AA
:100D50008C497D4806F020F88B4B0A227A481968A6
:100D600006F087F88949784806F02EF888497648D1
:100D700006F012F8874B0A227348196806F079F8D2
:100D80008249714806F020F883496F4806F004F85C
:100D9000824B0A226C48196806F06BF87B496A4856
:100DA00006F012F87E49684805F0F6FF7D4B0A22EE
:100DB0006548196806F05DF87449634806F004F860
:100DC000794B7A49D3ED006A794BF8EE666A5E4852
:100DD000D3ED007AF8EE677A86EEA77AB7EEC77A97
:100DE00039EE479B05F0D8FF0123574829EE0A9BAF
:100DF0000093B7EEC99BB7EEC97A53EC172B06F0F8
:100E000067F95A49504805F0DFFF6A4B1B78002B01
:100E100000F04A81684D69494B4805F0BDFF9FEDE0
:100E2000688AD5ED007A484867EE887A0094654F65
:100E3000B7EEE77A53EC172B06F04AF962494248BD
:100E400005F0AAFFD5ED007A05253F48B7EEE77A11
:100E5000009553EC172B06F03BF95C493A4805F036
:100E6000B3FF97ED007ADFED5A7AB4EEE77AF1EE50
:100E700010FA40F11781574ED6ED007AF5EEC07AA0
:100E8000F1EE10FA40F30E8153492F4805F084FF2C
:100E9000D7ED007A2C4867EE887A0094B7EEE77AAF
:100EA00053EC172B06F014F94C49274805F074FF52
:100EB000D6ED007A244867EE887A0094B7EEE77A98
:100EC00053EC172B06F004F93F491F4805F064FF67
:100ED000D7ED007A1C48B7EEE77A009553EC172B54
:100EE00006F0F6F83D49184805F056FFD6ED007AB1
:100EF0001548B7EEE77A009553EC172B06F0E8F8A3
:100F00003249374D0224104805F05EFF35490E483E
:100F100005F042FFD5ED007A0B4867EE887A009421
:100F2000314EB7EEE77A53EC172B06F0D1F82F4984
:100F3000054805F031FF5BE000000000000059406B
:100F40009C2F002430FD06084C3C002443F9060881
:100F500031FD06086DF9060879F906088AF90608D0
:100F60006239070896F90608B7F90608C3F90608B2
:100F7000C5F90608EC190024DAF90608DFF90608B5
:100F8000E8190024F4F90608EC2600240CFA0608F7
:100F900015FA0608E02600242DFA0608E8260024A3
:100FA00042FA0608DC2600241422002457FA060818
:100FB000202600248C2F0024F019002486FD06082A
:100FC00000007A440C00002498FD06089EFD0608E7
:100FD000003C1C461C220024A2FD0608B2FD0608A7
:100FE000F4190024DEFD060840260024EEFD060864
:100FF000D5ED007A05253848B7EEE77A009553EC31
:10100000172B06F065F83549334805F0DDFE344905
:10101000314805F0C1FED6ED007A2F4827EE888AC8
:101020000094B7EEC87A53EC172B06F051F82D490F
:10103000294805F0B1FED6ED007A2748B7EEE77AE9
:10104000009553EC172B06F043F82749224805F08A
:10105000BBFE2649204805F09FFE00941E481CA3B5
:10106000D3E9002306F034F821491B4805F094FE2B
:10107000009400221F4B184806F02AF81E49164813
:1010800005F0A2FE1D49144805F09EFE1C491248B9
:1010900005F09AFE1B49104805F096FE17B0BDEC0E
:1010A000068BF0BD18492CE718490B4805F08CFE5B
:1010B0001549094805F088FE1549074805F084FEE2
:1010C0001449054805F080FE1349D8E7AFF30080C6
:1010D0009A9999999999B93F4C3C0024F4FD0608D6
:1010E000F8FD06080DFE060813FE060817FE0608A2
:1010F00024FE0608000008402BFE06086BFA0608CE
:1011000086FA060831FD0608B6FD06082EFE06081A
:1011100058FE06086BFE060883FE060838B5012156
:1011200005460024192006F041FB0121182006F095
:101130003DFBAC420FDA0021172006F037FBC82038
:1011400006F020FA01211720013406F02FFBC820F9
:1011500006F018FAEDE738BD38B501210546002440
:10116000172006F023FB0121192006F01FFBAC42DB
:101170000FDA0021182006F019FBC82006F002FA49
:1011800001211820013406F011FBC82006F0FAF9FD
:10119000EDE738BD144B1B7870B506460D46144676
:1011A0002DED028BD3B1114803F0EEFD9FED108AB7
:1011B00007EE900A0D48C7EE887AC6ED007A03F074
:1011C000CBFD2860094803F0F0FD07EE900AC7EE5A
:1011D000887AC4ED007ABDEC028B70BD054B0360CC
:1011E0000B601360F7E700BF8C2F0024602F0024F2
:1011F00000007A440000C07F0F4B10B51B7886B00A
:101200000E4C0394049405947BB105AA04A903A889
:10121000FFF7C0FF059B039A00931146049B1046FD
:101220000194FFF751FB06B010BD019423460094D2
:10123000224621462046F4E78C2F00240000C07F80
:101240002DE9F843044600EB0108DFF844900E4D09
:101250000E4E444512D0237827460F2B03D849461B
:10126000284605F099FD397810222846013405F00A
:101270000DFE3146284605F08FFDEAE70248BDE83D
:10128000F84305F091BD00BF4C3C0024F6F8060879
:10129000E652070838B5451E00F10F044FF4807080
:1012A00005F034FC05F8010FA542F7D138BD70B543
:1012B00002F10F040E461546014624F00F04304695
:1012C00026F050FE631B354413F0FF0304BF1034B7
:1012D0001023AA1B944202D905F8013BF9E72046E6
:1012E00070BD00003B4B2DE9F04F9146A1B01A783C
:1012F0008B460290039312B13748FFF739FCB9F5DA
:10130000806F08D900253549354805F05DFD284630
:1013100021B0BDE8F08F334B1B780BB9FFF7C2FA51
:10132000002508AEDFF8C4A006F020F92F46009093
:1013300004AC01372046FFF7ADFFA4465A4663468A
:10134000083203CBB34242F8080C42F8041C9C4616
:10135000F5D10BF1100894E80F0086E80F004A461B
:101360000299404626F0FEFD06F000F942464B4643
:10137000314601905046FFF789FA0DF1300806F02A
:10138000F5F8019BC01A054494E80F0088E80F00A7
:10139000402200210DEB020026F0E2FE40234146F0
:1013A00050460DEB0302FFF705F806F0DFF8009B4F
:1013B000C01A63280BD9022FBADD039B1B78B5FB3B
:1013C000F7F5002BA3D00848FFF7D2FB9FE7142FB7
:1013D000AED1F2E7E526002400FF06081AFF060852
:1013E0004C3C0024E419002449FF06082419002479
:1013F000344B2DE9F04F90469BB01A7881468A46CF
:10140000019312B13048FFF7B3FBB8F5806F08D9EC
:1014100000242E492E4805F0D7FC20461BB0BDE81D
:10142000F08F2C4B1B780BB9FFF73CFA002409F125
:10143000100B06F09BF80090254602AA01354B469A
:1014400017461868083353F8041C16465B4503C654
:101450003246F6D142465946504626F083FD06F004
:1014600085F806464346524639461B48FFF714FAAC
:1014700006F07CF8801B06AE044497E80F0086E86F
:101480000F00402200210AA826F06AFE40230AAA83
:1014900031461148FFF760F806F068F8009BC01A63
:1014A00063280BD9022DC8DD019B1B78B4FBF5F432
:1014B000002BB2D00948FFF75BFBAEE7142DBCD17F
:1014C000F2E700BFE52600249DFE0608B7FE0608E9
:1014D0004C3C0024E419002424190024E6FE0608EC
:1014E0002DE9F04F2DED0E8BADF23C5D02468946A5
:1014F0006E4915901EA827F019F96D491EA825F010
:10150000C9F90546A8B96B496B4805F045FC1EA909
:10151000694805F059FC6949694805F055FC012006
:10152000FFF7FCFD00200DF23C5DBDEC0E8BBDE82D
:10153000F08F0222002125F0E5FB284625F08EFDE4
:101540000022804628461146DFED5E8A25F0DAFB50
:10155000B8F5806F08F1FF365B4934BF43464FF45E
:101560008063554800271E440F939FED58AAF0EE64
:10157000689AB0EE68BA3C46F0EE68AA9FED548ACD
:10158000F0EE4ABAB6FBF3F606FB09F3169305F044
:101590001BFC5049484805F017FC4F49464805F0E8
:1015A00013FC4E49444805F0F7FB0A2249464248DD
:1015B00005F053FC4A49404805F006FC49493E48BD
:1015C00005F0EAFB15993C4805F0E6FB46493A4828
:1015D00005F0E2FB0A224146374805F059FC434931
:1015E000354805F0D9FB0A223146334805F050FC56
:1015F0003F49314805F0E8FB3E492F4805F0E4FB40
:10160000FFF750F905F0A0FF00211890192006F00F
:10161000CDF80A2310977343CDE912771793B94594
:1016200040F3848100224FF0000B2846114625F03C
:1016300069FBCDF844B0119B984540F240815E456E
:1016400000F03D81A8EB030A0F9B01212A489A452F
:1016500028BF9A462B46524625F0FEF9504555D0F4
:101660000F902649144805F0AFFB2549124805F0B4
:1016700093FB0A225146104805F00AFC21490E4806
:1016800005F08AFB0F9B0A220B48194605F000FC67
:10169000284624F0DDFE0121192006F087F81A49BA
:1016A000074805F091FB04203AE700BFD1F1060896
:1016B000D8F10608DBF106084C3C0024EBF10608E3
:1016C000A43800240000000030FD0608003C1C4641
:1016D00000007A44F9F1060831FD060824F20608F4
:1016E0004FF206085EF206080CF8060866F20608D5
:1016F0006FF2060878F20608602B002492F20608C2
:10170000B4F20608BEF20608CBF20608119A0BF1F5
:10171000010B149001340244119205F027FF149B31
:10172000824675491A4675481993FFF7DBFD05F0A7
:101730001DFF129BA0EB0A0A4FF4806200214EA805
:101740005344129326F00CFD05F010FF199B4EA98F
:1017500014901A466848FFF74BFE05F007FF149BEC
:101760001CA9C31A1BA81493DDE9133213441DAA44
:101770001393FFF70FFD9DED1B7AB4EE477AF1EE60
:1017800010FA23D6DDED1C6ADDED1D7AF4EE666AF3
:10179000F1EE10FA1AD6F4EE677AF1EE10FA15D6D9
:1017A000B4EE4A7A109B7AEE87AA3BEE26BA013352
:1017B000F1EE10FAB4EE687A109379EEA79A48BF6A
:1017C000B0EE47AAF1EE10FA77FE288A9DED1D6A69
:1017D00027EE085A9DED1C4AB7EEC77A26EE083A66
:1017E000474BB7EEC55AB7EEC44A1B78B7EEC33ABB
:1017F000B7EEC66A8DED0A3B8DED0C6B8DED084B97
:101800008DED067B8DED045B002B4CD0149B80216D
:10181000CDF800B02EA83B4ACDE901A33B4626F007
:101820003DFF2EA9384805F0CFFA2EA9374805F01C
:10183000CBFAB4FBF6F306FB134343B10A22B4FB25
:10184000F2F302FB134333BB2D4B1B781BBB304918
:101850002D4805F0A1FA179B179AB4FBF3F302FB8E
:10186000134313B1169BA34215D12A49264805F00C
:1018700093FA0A222146244805F0FBFA2649224819
:1018800005F08AFA16990A221F4805F001FB234940
:101890001D4805F099FA6FEA0B01182001F00101CB
:1018A00005F084FFC7E6149B8021CDF800B02EA878
:1018B000144ACDE901A33B4626F0F0FEB5E7104BF4
:1018C00001371B78002B3FF4AAAE15490E4805F0EE
:1018D00063FA0A2239460C4805F0BFFA11490A4852
:1018E00005F05AFA49460A22074805F0B6FA0E49A9
:1018F000054805F069FA92E6F0260024602B0024E2
:10190000E4260024D6F206084C3C0024A438002427
:10191000DDF4060897F50608A3F50608CF3B07088F
:1019200020F306082BF3060830F30608284624F0B7
:101930008FFD0121192005F039FF0121182005F044
:1019400035FF05F001FE07EE904A9DED127AF8EEA4
:10195000677A189BB8EE477AC71A109B87EE27EA7A
:101960009DED137AB8EE477A9FEDBD6B87EE278A1F
:10197000DDED0F7AB8EEE77B27EE067BB7EECEDA29
:1019800087EE0D6BB7EEC8CAFCEEC66B16EE905A2A
:1019900087EE0C6BFCEEC67B17EE904A002B00F036
:1019A000878207EE903AF8EEE77A9FEDAF6BC9EECB
:1019B000A79ACAEEA7AA8BEE27BA07EE907AB8EEDE
:1019C000675B85EE067BB7EEE96A27EE067BB7EE2E
:1019D000C79BA949A94805F0F7F9A949A74805F007
:1019E000F3F9A849A54805F0EFF9A749A34805F080
:1019F000D3F91599A14805F0CFF9A4499F4805F0FE
:101A0000CBF90A2241469D4805F042FAA0499B487D
:101A100005F0DAF99F49994805F0BEF90A224946CE
:101A2000964805F01AFA9C49944805F0B5F90A223F
:101A30003146924805F02CFA984990484EAE05F090
:101A4000C3F997498D4805F0A7F90A2212998B48E6
:101A500005F00FFA9349894805F0B6F9924987488D
:101A600005F09AF90A221399844805F002FA8D4983
:101A7000824805F0A9F98D49804805F08DF90A22C0
:101A800039467E4805F0F5F989497C4805F09CF90E
:101A900030460FF0A7F8874FD6E9020123F0C2FACB
:101AA0000EEE900AD6E9000123F0BCFA07EE900A88
:101AB000814902268EEEA77A7048B7EEC76AB7EE64
:101AC000007B37EE467B9FED6A6B27EE067BB7EE19
:101AD000C77B87ED007A05F05FF9D7ED007A67489C
:101AE000B7EEE77A009653EC172B05F0F1FA73493D
:101AF000624805F069F97249604805F065F9714975
:101B00005E4805F049F900965C4853EC1D2B05F042
:101B1000DFFA6449594805F057F96B49574805F011
:101B20003BF90096554853EC1C2B05F0D1FA5D4962
:101B3000524805F049F96549504805F045F96449AE
:101B40004E4805F029F90A2229464C4805F091F93A
:101B500060494A4805F038F95F49484805F01CF9E2
:101B60000A222146454805F084F95A49434805F0C0
:101B70002BF95A4B0F9A83ED00EA594B3E4983EDFE
:101B8000008A584B3D481D60574B1C60574B1D60E9
:101B9000574B1C60574B1A60574B1A60574BC3ED9D
:101BA00000AA574B83ED00AA564BC3ED008A564B53
:101BB00083ED00BA554BC3ED009A554B83ED009A67
:101BC00005F002F953492D4805F0FEF82D492B4840
:101BD00005F0FAF8504B1B78002B00F06E81109B3B
:101BE000002B00F06A819FED4D8A05244C49234863
:101BF00005F0D2F86AEE887A00962048B7EEE77AC8
:101C000053EC172B05F064FA46491C4805F0C4F85C
:101C1000B7EEEA7A0094194853EC172B05F058FAFE
:101C20004149164805F0D0F8B4EEEBAAF1EE10FAEF
:101C300040F14181F5EEC08AF1EE10FA40F33B81AC
:101C40003A490E4805F0A8F86AEE087A00960B4863
:101C5000B7EEE77A53EC172B05F03AFA68E000BFCD
:101C60000000000080842E410000000000408F40F2
:101C7000000000000000594030FD06084C3C0024E4
:101C80003BF3060831FD06085EF206080CF806086C
:101C900065F306086DF3060884F30608CD1B0708F4
:101CA00095F30608DAF90608ADF30608C5F3060849
:101CB000D7F30608D8260024B7F90608C3F90608A2
:101CC000DBF30608F8F3060807F4060816F406081E
:101CD000F4F906080CFA060815FA0608EC190024AF
:101CE000E8190024EC260024E0260024E82600243D
:101CF000DC2600241422002420260024F0190024CD
:101D00000C0000241C220024F8190024F4190024DB
:101D1000402600245CFD06088C2F002400007A4435
:101D200086FD060898FD06089EFD0608A2FD060829
:101D30006F49704805F030F868EE887A00966D4873
:101D4000B7EEE77A53EC172B05F0C2F96A496948F8
:101D500005F022F8B7EECA7A0094664853EC172BC8
:101D600005F0B6F96249634805F016F8B7EEE87A6F
:101D70000094604853EC172B05F0AAF95F495D48C1
:101D8000022405F021F85E495A48052505F004F8BB
:101D9000B7EECB7A03235748009353EC172B05F08B
:101DA00097F95849534805F00FF85749514804F03E
:101DB000F3FF69EE887A00944E48B7EEE77A53EC69
:101DC000172B05F085F951494A4804F0E5FFB7EEB5
:101DD000E97A0095474853EC172B05F079F94C49FF
:101DE000444804F0F1FF4B49424804F0D5FF29EE86
:101DF000088A00943F48B7EEC87A53EC172B05F0D9
:101E000067F945493B4804F0C7FFB7EEC97A00952A
:101E1000384853EC172B05F05BF94049354804F07E
:101E2000D3FF3F49334804F0B7FF009431482EA355
:101E3000D3E9002305F04CF93A492E4804F0ACFFF1
:101E400000940022384B2B4805F042F937492948C5
:101E500004F0BAFF3649274804F0B6FFFEF7F0FE5B
:101E60003449244804F0B0FF3349224804F0ACFF61
:101E70002F49204804F0A8FF30491E4804F08CFF89
:101E80000A2241461B4805F003F82D49194804F081
:101E900083FF0A224946174804F0DFFF2949154805
:101EA00004F092FF0320FFF757F90120FFF73BBB37
:101EB0009FED259A8DE5254961E725490D4804F0F8
:101EC00083FF22490B4804F07FFF2249094804F0B0
:101ED0007BFF2149074804F077FF2049054804F0BB
:101EE00073FF1F49B3E700BF9A9999999999B93F30
:101EF000B2FD06084C3C002498FD06089EFD06082D
:101F0000C9FD0608DBFD0608DEFD0608EEFD060835
:101F1000F4FD0608F8FD06080DFE060813FE060887
:101F200017FE060824FE0608000008402BFE0608DF
:101F300031FD060830FD06082CF4060857F40608A3
:101F400062F406086DF4060800000000B6FD0608FD
:101F50002EFE060843FE060858FE06086BFE06081D
:101F600083FE060830B571B1431813F8013C5A1EC0
:101F70000F2A08D8CC1A0219151AA94205D912F845
:101F8000015BAB42F8D0084630BD2146FBE7013883
:101F9000002210B510F8013F8C1833B1202BF9D076
:101FA000092BF7D001322370F4E7237010BD000035
:101FB00010B5C4B0044610220021684626F0D0F8BF
:101FC00004A92046FFF7E3FF2C4904A827F0D4F822
:101FD00098B92B4904A827F0CFF870B9294904A86B
:101FE00027F0CAF848B9284904A827F0C5F820B94D
:101FF000264904A827F0C0F8B8B11E242449684631
:1020000026F0ECFD3D2104A826F0F8FB50B1437802
:102010003F2B07D06946013026F076FC002818BF18
:102020004FF0FF34204644B010BD1A4904A827F0F1
:10203000A3F828B11849684626F0D0FD0A24E1E744
:10204000164904A827F098F80028F3D1144904A8E9
:1020500027F092F828B11349684626F0BFFD1424F2
:10206000D0E7114904A827F087F828B10F4968463E
:1020700026F0B4FD1924C5E70446D3E761F7060846
:102080006AF7060871F706087AF7060881F7060866
:10209000E504070889F7060890F706088DF7060893
:1020A00093F7060897F706089AF70608A0F70608B8
:1020B0000E4B10B51C781CB1BDE81040FFF710BAEC
:1020C0000B490C4804F080FE0B490A4804F07CFEE2
:1020D0000A49084804F078FE0949064804F074FEED
:1020E0000220FFF71BF8204610BD00BF942F0024EC
:1020F00030FD06084C3C002479F4060831FD060842
:10210000A4F406082DE9F0415749BCB0574804F043
:102110005BFE5749554804F057FE5649534804F0B2
:1021200053FE5549514804F04FFE54490CA8FEF7A0
:102130003FFB534B04AA03F11006154637461868B7
:10214000083353F8041C1446B34203C42246F6D1A4
:102150004C4B6A4603F1100C1E4690461868083333
:1021600053F8041C1446634503C42246F6D11023D9
:10217000424629460CA8FEF71DF943493B4804F0A6
:1021800023FE10213F48FFF75BF84049374804F031
:102190001BFE10214046FFF753F83D49334804F039
:1021A00013FE10213B48FFF74BF80023394A18F87B
:1021B0000300995C88424BD10133102BF7D10124E5
:1021C0002F4BAC461868083353F8041C6246BB42D8
:1021D00003C29446F6D12F4B08AA03F1100C904687
:1021E0001868083353F8041C1746634503C73A467A
:1021F000F6D11023424629460CA8FEF7ADF9264930
:102200001A4804F0E1FD10214046FFF719F8204973
:10221000164804F0D9FD10211A48FFF711F80023E1
:1022200018F80310F25C914214D10133102BF7D14E
:1022300084B11A490D4804F0C7FD0220FEF78CFF57
:102240000C490A4804F0C0FD20463CB0BDE8F081CE
:102250000024B5E712490024044804F0B5FD052028
:10226000FEF75CFFECE700BF30FD06084C3C0024A5
:10227000DFF4060831FD060809F506089E01070887
:102280008E01070863FF060837F5060842F50608C1
:102290004DF5060873FF060857F5060862F50608AF
:1022A00079F506082DE9F04105463D488846FEF7D8
:1022B0005FFC29463B4804F0BBFFAA683A4F531E17
:1022C0003A60B3F57C7F05D338493948BDE8F04121
:1022D00004F07ABD374900242868FEF7E8FF364B42
:1022E000364E1C60364B3060C3F80080354B1C60A6
:1022F000354B1C60354B1C60FEF7D4FA0023344A82
:1023000034491360344A1460344A1360344A136009
:10231000344A1160344A1360344A1360344B1C60F1
:1023200005F012F9334B012233491860334B204832
:102330001A7004F049FD32491D4804F045FD314949
:102340001B4804F041FD3049194804F025FD0A22DC
:102350004146174804F05FFD2C49154804F034FD50
:102360002B49134804F018FD2946114804F00FFDCD
:1023700028490F4804F010FD0A2239680C4804F07F
:1023800087FD25490A4804F007FD0A2231680848FC
:1023900004F07EFD2149064804F016FD204994E72B
:1023A000A3F706082C26002414220024B4F70608FC
:1023B0004C3C002420220024FC1900242026002468
:1023C000482600243C2600243826002444260024E5
:1023D00040260024003C1C4610220024F019002452
:1023E0001C2200240C000024F8190024F4190024F5
:1023F000182200242426002430FD06082826002464
:10240000F9F1060831FD0608C8F70608F2F70608D4
:1024100002F806080BF806080FF8060865F3060828
:1024200022F80608000000002DE9F04F2DED068B84
:102430008DB005F089F8C44B1B68C31A04A809EED7
:10244000103A0EF0CFFBDDE9060122F0EBFD08EEBD
:10245000100ADDE9040122F0E5FD07EE900ABB4B0E
:1024600088EE277AB7EE008B9FEDB1ABB7EEC77A57
:1024700038EE477B27EE0A7BB7EEC77B83ED007A09
:10248000B34B1B68002B25DD07EE903AB14BB8EE3D
:10249000494BF8EEE77AD3ED006A9FEDA75B86EE35
:1024A000A77A83ED007AAC4BD3ED006A86EEA77A6B
:1024B00083ED007AA94B93ED007AC7EE276A84EE8C
:1024C000057BC3ED006AA64BB7EEC77B27EE267AE5
:1024D00083ED007AA34BA44D93ED007AD5ED007AFD
:1024E000B8EE477AA14FF8EEE77AA14CDFF8F8B2E0
:1024F000A04E87EE274A97ED007ADFF8F092DFF8DA
:10250000F0A203939C4BB8EE477A9C4ADFF8E48232
:102510009B4987EE275AD4ED007A9A48B8EE676B4C
:102520009FED872B8BED004AB7EEC44A26EE026B77
:1025300086EE047B8AED005AB7EEC55A86EE053B5F
:10254000BCEEC77BD6ED007A89ED007AB8EE677BEA
:1025500027EE027BBCEEC33B87EE046B88ED003AAE
:10256000BCEEC66B83ED006A87EE056BBCEEC66BF6
:1025700082ED006A04F028FC8349824804F024FCC0
:102580008249804804F020FC81497E4804F004FC24
:1025900080497C4804F0FBFB7F497A4804F0FCFB4F
:1025A0000A223168774804F073FC7C49754804F0CE
:1025B000F3FB0A222168734804F06AFC78497148E9
:1025C00004F002FC77496F4804F0E6FB0A22296810
:1025D0006C4804F020FC6B4804F0E6FB7249694843
:1025E00004F0DAFB039B0A226648196804F041FCF8
:1025F0006E49644804F0E8FB6D49624804F0CCFB86
:102600000A22396802275F4804F033FC67495D48B5
:1026100004F0DAFB67495B4804F0BEFB0A2219EEBE
:10262000101A584804F025FC6349564804F0CCFBC6
:102630006249544804F0B0FB444B5248D3ED007A51
:102640000097B7EEE77A53EC172B04F041FD5C4995
:102650004C4804F0B9FB5B494A4804F0B5FB5A49C1
:10266000484804F099FBDBED007A0097B7EEE77A73
:10267000444853EC172B04F02BFD4C49414804F01F
:10268000A3FB52493F4804F087FBDAED007A00973C
:10269000B7EEE77A3B4853EC172B04F019FD43499A
:1026A000384804F091FB4A49364804F08DFB49490B
:1026B000344804F071FB0A22D9F80010314804F0C4
:1026C000D8FB45492F4804F07FFB44492D4804F0CE
:1026D00063FB0A22D8F800102A4804F0CAFB3E49DE
:1026E000284804F071FB3E49264804F055FB224B74
:1026F0000A222448196804F0BCFB3749214804F039
:1027000063FB38491F4804F047FB1C4B0A221D4855
:10271000196804F0AEFB30491A4804F055FBD6EDB9
:10272000006AD4ED007AF8EE666A65E0AFF30080E7
:1027300000000000000059400000000000408F40F1
:102740000000000080842E4124260024D826002486
:1027500010220024F0190024F8190024F419002490
:10276000402600243C260024482600243826002445
:102770002026002414220024E8260024DC2600243D
:1027800030FD06084C3C00243BF3060831FD0608EA
:1027900041F806082C2600240BF806080FF8060856
:1027A00065F306086DF3060895F30608DAF90608DE
:1027B000ADF306084FF80608D7F3060866F80608D2
:1027C000C3F90608DBF30608F8F3060807F4060861
:1027D00016F40608F4F906080CFA060815FA0608B5
:1027E0002DFA060842FA0608EC190024EC2600240B
:1027F000E8190024E02600246949F8EE677A694860
:1028000086EEA77AB7EEC77A38EE478B04F0C4FAA3
:102810000123644828EE0A8B0093B7EEC88BB7EE0D
:10282000C87A53EC172B04F053FC5F495D4804F061
:10283000CBFA5E495B4804F0C7FA5D49594804F099
:10284000C3FA5C49574804F0BFFA5B4B1B68002B86
:1028500040F39F80594B1B78002B00F09A80584B17
:10286000584A1B6858490193584B59481B680093B4
:10287000584B12681B6809680068574EFEF724F829
:102880003368002B33D04949464804F09DFA534938
:10289000444804F099FA4749424804F095FA5049EF
:1028A000404804F079FA0A2231683E4804F0E1FA1F
:1028B0004C493C4804F088FA4B493A4804F06CFA19
:1028C00096ED007AD5ED007A0223B8EE477A3548C6
:1028D000F8EEE77A0093C7EE276AB7EEE67A53EC94
:1028E000172B04F0F5FB3F492E4804F06DFA2F49F1
:1028F0002C4804F069FA3D492A4804F065FA2D494C
:10290000284804F061FA3A49264804F045FA21685B
:1029100038481031202928BF2021FEF791FC364984
:10292000204804F039FA35491E4804F04DFA2821B0
:10293000324825F063FFE0B12921304825F05EFFE1
:10294000B8B13D212D4825F059FF90B13F212B48CA
:1029500025F054FF68B12948FFF72AFB044640B12F
:102960002749104804F018FA0A2221460D4804F0BD
:1029700076FAFEF765F92348FEF7FAF8224B0022B3
:1029800003201A70FEF7E8FB0DB0BDEC068BBDE826
:10299000F08F1E4B01931A460093194618466CE7B8
:1029A00057FA06084C3C0024C3F9060830FD060817
:1029B0005CFD060831FD0608102200248C2F00243F
:1029C000402600241C2200240C000024F4190024BA
:1029D000F0190024F81900244426002472F806088F
:1029E0009CF80608DAF90608B4F80608CEF80608D6
:1029F000F8F80608001E00241AF90608001A002438
:102A000026F9060833F90608282600240000C07FAE
:102A10002DE9F04F9A4E4FF000089A4C3568C146A8
:102A20002368994FED1ADFF8BCA2642D2DED028BBF
:102A3000A8BF6425ADF21C4DA84534DA3A6851466A
:102A40009248FEF74FFC924A136803441360914B7F
:102A50001A68824294BF1A6018608F4B1A688242CB
:102A60002CBF1A6018604FF4FA72236893FBF2F1DE
:102A700002FB1133002B40F03B810DF1180B3A683B
:102A8000504603935946FEF7B3FC3A68039B7F49CF
:102A90009A4200F02D811BF803C0585C844540F039
:102AA00023810133F4E7B9F1000F7FD07B497C48E3
:102AB00004F072F9216842F2107291FBF2F302FB0A
:102AC0001313002B72D17749754804F065F90A2277
:102AD0002168734804F09FF97349714804F05CF968
:102AE0000A2231686E4804F096F970496C4804F087
:102AF0006BF9694B674AB6EE003B1B681268991A7E
:102B000013446B4A06EE103A04EE101A694BB8EE05
:102B1000466B1268B8EE444A1B6826EE036B991A9E
:102B20001344B7EEC44A07EE103AB8EE477B84EE82
:102B3000065B27EE037B9FED504B25EE045BF7EE23
:102B4000C58B05EE101AB8EE455AB7EEC55A85EE9C
:102B5000076BF2EE047AF4EEE78AF1EE10FA26EE55
:102B6000046BB7EEC68B04DCB4EEE78AF1EE10FA24
:102B70001CDD514901254A4804F00EF9B7EEE87A08
:102B80000095474853EC172B04F0A2FA4B494448F0
:102B900004F002F9B7EEC87A0095414853EC172BC0
:102BA00004F096FA46493E4804F00EF9454D04F00B
:102BB000CBFC07462B68C31A632B4ED9424B1B78BC
:102BC000002B4AD006AA05A904A8FEF7E3FADDED1A
:102BD000047AF4EE677AF1EE10FA3ED69DED056ABE
:102BE000B4EE466AF1EE10FA37D6DDED066AF4EE81
:102BF000666AF1EE10FA30D6344B354A93ED007A1E
:102C00002F6037EE277A83ED007A324B93ED007A0E
:102C100037EE067A83ED007A2F4B93ED007A37EE8C
:102C2000267A83ED007A2D4B93ED007AF4EE477A05
:102C3000F1EE10FA37FE877A83ED007A284B93ED98
:102C4000007AF4EE477AF1EE10FA48BFB0EE677AF8
:102C500083ED007A136801331360226833689A4267
:102C600001DBFFF7E1FB0DF21C4DBDEC028BBDE873
:102C7000F08F00BFAFF3008000000000000059405B
:102C800048260024FC1900242026002420220024A9
:102C90003C2600240800002420190024DDF4060846
:102CA0004C3C002497F50608A3F50608CF3B07081F
:102CB000040000241C190024DDFC0608F9FC0608A9
:102CC000C3F90608182200248C2F0024F0190024D0
:102CD00010220024F8190024F41900241C220024D6
:102CE0000C000024001E00242E492F4804F06CF82C
:102CF000DFF8CCB050463A685946FEF779FB2B4ACC
:102D00003968136803441360294B1A68824294BFE0
:102D10001A601860274B1A6882422CBF1A6018602C
:102D20005846FFF71FF900232B210BF800305846B7
:102D300025F064FDC0B92D21584625F05FFD98B9F6
:102D40002A21584625F05AFD70B92F21584625F002
:102D500055FD48B91849584626F00EFA20B91749CA
:102D6000584626F009FA68B104F000FC834614487E
:102D7000FFF71EF904F0FAFB124A13681844A0EB9F
:102D80000B00106023684FF47A7108F101080133D9
:102D900093FBF1F2236001FB1233002B08BF4FF0CD
:102DA000010949E606FD06084C3C002438260024AB
:102DB000040000241C190024CDFC0608D4FC0608DD
:102DC000001A002444260024024B1B780BB1FFF7A5
:102DD0001FBE70472826002438B5134D134C2846D3
:102DE00001F018FC2846124D224612490DF09CFABB
:102DF00000221149284613F0CBFA22460F492846F3
:102E00000DF092FA0E4B0F4A0F4DDA6040220F4937
:102E100028461A6104F0DBF9224628460C49BDE831
:102E200038400DF081BA00BF502600240000002475
:102E3000042B002411450408C6F006087D6105082E
:102E4000602F0024A02F00242C26002470210708C6
:102E5000397104082DE9F04F7749A9B0774803F09C
:102E6000B3FF7749754803F0AFFF7649734803F025
:102E7000ABFF754B1B784BB97449704803F0A4FF46
:102E80000220FEF74BF929B0BDE8F08F70480DF035
:102E9000EDFC804648B96F49684803F095FF6E49DC
:102EA000664803F091FF0320EBE700246B49634879
:102EB00025462746DFF8E89103F086FFDFF8E4A116
:102EC000DFF8E4B166495D4803F07EFF40460DF04F
:102ED000CFF90646002859D0494625F015FD0028AF
:102EE000F4D05146304625F00FFD0028EED059466B
:102EF000324602A825F01AFC12A902A80DF0CCF95E
:102F000000283AD1139B03F47043B3F5804F09D1E5
:102F100054490135494803F03FFF3146474803F023
:102F200053FFD3E73146454803F036FF4E49434847
:102F300003F032FF16990A22B1F5806F0EDA3F488E
:102F400003F069FF49493D48013703F025FF48492F
:102F50003A4803F039FF169B1C44B7E7B1F5801FD0
:102F600005DA1141354803F056FF4249EBE70915F0
:102F7000324803F050FF4049E5E740492F4803F04D
:102F80000BFF31462D4803F01FFF9FE740460DF031
:102F9000A3FC3349294803F017FF1FBB05B329469B
:102FA0000A22264803F059FF3549244803F00CFF54
:102FB0003449224803F0F0FE334801F03CF90A237B
:102FC000020D1E4800930B0D42EA013203F0E0FFB0
:102FD00029491A4803F0F8FE0120FEF7BDF852E730
:102FE0002A49E2E70A223946144803F036FF284905
:102FF000124803F0D1FEB4F5806F4FF00A020ADAEE
:1030000021460E4803F007FF22490C4803F0DCFE7E
:10301000002DCDD0C3E7B4F5801F06DA44FA02F1E3
:10302000064803F0F8FE1C49EFE72115034803F0BA
:10303000F2FE1A49E9E700BF30FD06084C3C0024C7
:1030400078F0060831FD0608942F0024A2F0060847
:10305000C5F00608C9F00608EAF0060805F10608FA
:1030600027F1060851F106080CF8060858F1060881
:10307000CD1B07085BF106085FF1060863F106083F
:103080006AF10608C5F10608502600247AF1060800
:1030900099F10608A4F10608B1F10608BBF106088B
:1030A000DDF4060807FC0608D1F1060873B5012116
:1030B000172004F0F7FA01211820484D04F0F2FA25
:1030C0000121192004F0EEFA0121172004F06EFB13
:1030D0000121182004F06AFB0121192004F066FB8D
:1030E0003F49404803F070FE3F493E4803F06CFE04
:1030F0003E493C4803F068FE2B7843B13C493948CF
:1031000003F062FE3B4812F02FFE00232B703A4979
:10311000344803F059FE394801F016FA044688B1E4
:103120003749304803F038FE0A2221462D4803F083
:1031300096FE34492B4803F047FE0320FDF7EEFFCF
:1031400000202BE030490A26264803F03DFE2F4997
:10315000244803F021FE294801F06DF80096020D85
:1031600020480B0D42EA013203F012FF28491D48A6
:1031700003F02AFE27491B4803F026FE1F491D487D
:1031800012F068FD044658B923490124154803F09C
:103190001BFE02202C70FDF7DFFF204602B070BD41
:1031A0001E49104803F0F8FD324621460D4803F051
:1031B00056FE1B4B9C4204D0033B9C4201D0023480
:1031C00009D11849074803F0FFFD1749054803F0E6
:1031D000FBFD0220B2E71549F8E700BF942F002459
:1031E00030FD06084C3C0024C8F5060831FD0608F1
:1031F000F3F50608042B002421F6060850260024C7
:1032000005FB060839F6060873F60608C5F1060838
:103210005FF1060891F60608A8F60608C9F6060842
:1032200073ECFFFFEDF6060814F7060838F70608FA
:1032300037B54FF4E131594802F0B8F940F6B830EB
:1032400004F0A0F901211720554D04F02BFA0121BB
:10325000182004F027FA0121192004F023FA012193
:10326000172004F0A3FA0121182004F09FFA01218D
:10327000192004F09BFA4B49484803F0A5FD4A4940
:10328000464803F0A1FD4949444803F09DFD4FF431
:10329000E131474802F08AF94649454803F094FD78
:1032A000454801F010FA454801F020FD0446002889
:1032B00070D00021414801F0E0FC04213F48012486
:1032C00001F000FD07213D4801F0FFFC3C4A3D496B
:1032D0003A4801F069FC3C49304803F05DFD0022AA
:1032E0003A4B00942D4803F0F3FE39492B4803F084
:1032F00053FD00940022374B284803F0E9FE36497D
:10330000264803F061FD00202C7004F06DF903F0F5
:10331000F3FBFDF7C7FAFFF7C9FE00283CD02F49A1
:103320001E4803F051FD2E48FDF722FC2D491B4895
:1033300003F04AFD2C49194803F046FD2B49174874
:1033400003F042FD2A49154803F03EFD2949134880
:1033500003F03AFD2849114803F036FD27490F488C
:1033600003F032FD26490D4803F02EFD25490B4898
:1033700003F02AFD2449094803F026FD23490748A4
:1033800003F022FDFEF7BEFE022003B0BDE8304090
:10339000FDF7E2BE1E49B3E71E49C1E74C3C0024DD
:1033A0008C2F002430FD06084506070831FD06086D
:1033B000A438002470060708A02F0024602F0024E2
:1033C00000004040CDCCCC3D8606070800005940A7
:1033D000AD06070800000840BB060708EE06070810
:1033E0003E070708460707085B070708880707081E
:1033F000B4070708DD070708FE0707081A080708CB
:103400005A08070884080708AF080708D8080708FB
:10341000C40607080C07070830B587B004466F4993
:1034200003A803F0D4FE03A9204603F064FF054679
:1034300003A803F081FE002D2ED06949694803F0EE
:10344000C3FC6949674803F0BFFC6849654803F05D
:10345000BBFC674801F078F8044680B165496148D3
:1034600003F09AFC0A2221465E4803F0F8FC624908
:103470005C4803F0A9FC0320FDF750FE0AE05F4919
:10348000584803F0A1FC5E49564803F09DFC5D4B93
:1034900001221A7007B030BD5B4903A803F097FE04
:1034A00003A9204603F027FF0546564C00B12578B6
:1034B00003A803F041FE002D75D000254849494876
:1034C000257003F081FC514C5149464803F07CFCC7
:1034D0004649444803F078FC23781BB14D4812F06C
:1034E00043FC2570424801F02FF84B493D4803F05A
:1034F0006BFC0021192004F059F93D490022454890
:1035000013F09CF805460121192004F04FF975BB12
:103510004249344803F058FC35493E4812F09AFBC2
:10352000054658B93E492F4803F04EFC01230320BD
:103530002370FDF711FEFFF78DFCABE7394903A8B7
:1035400003F045FE0A222946684603F05FFE6946FD
:1035500003A803F0B2FE0146224803F02BFC6846A4
:1035600003F0EAFD03A803F0E7FD052084E72E49F8
:1035700003A803F02CFE0A222946684603F046FE03
:10358000694603A803F099FE0146164803F012FCB1
:10359000684603F0D1FD03A803F0CEFD234911488E
:1035A00003F012FCE1E72378002B3FF473AF2049CE
:1035B0000C48257003F008FC6CE703A803F0BCFD81
:1035C00021F016F9F9E7684603F0B6FDFFE703A816
:1035D00003F0B2FDF4E7F6E7F9E700BFC2FA060828
:1035E00030FD06084C3C0024CBFA060831FD0608E5
:1035F00050260024F6FA060822FB060846FB0608B9
:1036000078FB0608002B0024B9FB0608942F002441
:10361000C8FB0608042B0024F3FB06080AFC060876
:103620002AFC060848FC060872FC060889FC060805
:10363000B1FC06080000000070B5B24C23782DEDF7
:10364000068BADF6484D0BB1FFF7BEFBAE4801F05F
:10365000C7FE00280CDD03A80A22AB4903F050FD89
:1036600003A803F0BFFE059B53B903A803F064FD54
:103670000A2003F087FF0DF6484DBDEC068B70BDA8
:10368000A249A14803F088FB03A99F4803F092FBDD
:10369000237833B39E490DF6380003F098FD0DF6FC
:1036A000380103A803F027FE05460DF6380003F0A5
:1036B00043FD6DB19749944803F086FB002396497A
:1036C0009148237003F080FB0120FDF727FDCCE734
:1036D00092498D4803F078FB91498B4803F074FBC5
:1036E000C3E703A90DF6380003F0B1FD0DF638006D
:1036F000FFF792FE0DF6380003F01EFD89490DF527
:10370000876003F064FD0DF5876103A803F0F3FD06
:103710000446A0B984490DF6380003F058FD04E0D2
:103720000DF5876000F031BCFAE70DF6380103A80B
:1037300003F0E1FD04460DF6380003F0FDFC0DF545
:10374000876003F0F9FC3CB1784B012278491A708C
:103750006D4803F039FB73E176490DF5876003F09E
:1037600036FD0DF5876103A803F0C5FD044688B951
:1037700071490DF6380003F02AFD01E0D0E7CFE7EC
:103780000DF6380103A803F0B6FD04460DF6380027
:1037900003F0D2FC0DF5876003F0CEFC24B1634B3F
:1037A000002266491A70D3E765490DF6380003F028
:1037B0000EFD0DF6380103A803F09DFD04460DF63D
:1037C000380003F0B9FC14B1FEF79CFC38E15D4908
:1037D0000DF6380003F0FBFC0DF6380103A803F0EA
:1037E0008AFD04460DF6380003F0A6FC14B1FDF77F
:1037F00003FD25E154490DF6380003F0E8FC0DF611
:10380000380103A803F077FD04460DF6380003F0F5
:1038100093FC14B1FDF714FA12E14C490DF58760E1
:1038200003F0D5FC0DF5876103A803F064FD0446A1
:1038300088B947490DF6380003F0C9FC01E06FE78D
:103840006EE70DF6380103A803F055FD04460DF6AA
:10385000380003F071FC0DF5876003F06DFC14B1C6
:10386000FFF7F8FAECE03B490DF6380003F0AFFC47
:103870000DF6380103A803F03EFD04460DF63800AE
:1038800003F05AFC9CB134491F4803F09DFAFFF73E
:103890000DFC20B131491C4803F096FA6FE3304922
:1038A000194803F091FA0220FDF738FCC8E02D49D1
:1038B0000DF6380003F08BFC0DF6380103A803F079
:1038C0001AFD04460DF6380003F036FC24B1264BF1
:1038D000012226491A703BE725490DF6380003F00E
:1038E00076FC0DF6380103A803F005FD04460DF63D
:1038F000380003F021FC002C3ED01B4B00221D4958
:103900001A7025E7282600244C3C0024AE01070845
:10391000B1010708B6010708CC010708DF01070855
:10392000200207083602070855030708E42600248A
:103930004002070881020708870307088C0207086E
:10394000CC020708D5020708DB020708E2020708D5
:10395000E9020708EC020708F40207081503070844
:10396000340307084E030708E52600245F03070811
:10397000800307089203070877490DF5876003F075
:1039800026FC0DF5876103A803F0E6FC044688B920
:1039900072490DF6380003F01AFC01E0C0E6BFE6FC
:1039A0000DF6380103A803F0D7FC04460DF63800E5
:1039B00003F0C2FB0DF5876003F0BEFB002C43D083
:1039C000202103A803F0EAFC002801DC6449BFE6DB
:1039D000441C202103A8224603F0D2FC061EF5DD7C
:1039E0003346224603A90DF5876003F0DBFC0DF595
:1039F000876003F021FD0546059B721C03A90DF6A7
:103A0000380003F0CFFC002D0BDDDDF8403843B16A
:103A1000544C01222946DDF838082270FEF748FB95
:103A200004E05149514803F0CFF901E0002323702D
:103A30000DF6380003F080FB0DF5876003F07CFB8A
:103A40004A4803F0B1F910E649490DF5876003F0E3
:103A5000BEFB0DF5876103A803F07EFC044688B920
:103A600044490DF6380003F0B2FB01E058E657E692
:103A70000DF6380103A803F06FFC04460DF638007C
:103A800003F05AFB0DF5876003F056FB002C5BD06A
:103A90000025059B9D4208D2294603A803F06EFC31
:103AA0003038092801D90135F3E72C46059B9C42A3
:103AB00003D3A5420ADB30494AE6214603A803F0B6
:103AC0005DFC30380928F4D80134EFE723462A4654
:103AD00003A90EA803F066FC0EA803F0ADFC054692
:103AE000059B9C4207D3059B224603A90DF58760E1
:103AF00003F058FC09E0214603A803F03FFC23F043
:103B000007FD0028EFD00134EAE7002D02DDDDF8E3
:103B1000403423B91949154803F056F90EE00DF564
:103B200087610DF6380003F092FB29460DF6380048
:103B3000FEF7B8FB0DF6380003F0FEFA0DF58760CE
:103B400003F0FAFA0EA879E70D4903A803F0C1FBC8
:103B5000D0B10C49FCE500BFB4030708BA0307085D
:103B6000C003070828260024FD0307084C3C002456
:103B70004D040708540407088D0407085B04070870
:103B8000C5040708D9040708059B002B3FF458AF6C
:103B900003F0ECFCC048FCF7EBFF4FF4806200211F
:103BA0000EA824F0DDFA4FF4826200210DF63800F1
:103BB00024F0D6FA4FF4806200210DF5876024F0DE
:103BC000CFFA0EA9059A0398FDF771FB002105466F
:103BD000192003F0EBFD2A460DF638010EA8FDF77B
:103BE00081FB04462A460DF587610DF63800FDF786
:103BF000FFFB06460121192003F0D8FDA749A8487C
:103C000003F0E2F8A749A64803F0DEF8A649A44865
:103C100003F0DAF8A549A24803F0BEF805F1100157
:103C20000DF63800202928BF2021FDF709FBA04907
:103C30009B4803F0B1F80A222146994803F019F98C
:103C40009C49974803F0C0F89B49954803F0A4F8B5
:103C50000A223146924803F00CF99649904803F045
:103C6000B3F807EE905A06EE904A9449B8EE677B97
:103C70008B48B8EE665B9FED849B27EE097B87EE51
:103C8000056BF7EEC68B06EE906AB8EE665B87EEC4
:103C9000056BB7EEC68B03F07FF8B7EEE87A022328
:103CA0007F48009353EC172B03F012FA84497C48A9
:103CB00003F072F8B7EEC87A02237948009353EC08
:103CC000172B03F005FA7F49754803F07DF806A825
:103CD0000CF088FFDDE9080121F0A4F908EE100AD4
:103CE000DDE9060121F09EF907EE900A764988EE9B
:103CF000277A6B48B7EEC76AB7EE007B37EE467B94
:103D00009FED636B27EE067BB7EEC78B03F044F89D
:103D1000B7EEC87A02236248009353EC172B03F0E6
:103D2000D7F96A495E4803F04FF8694B1B78002BBE
:103D300000F09980674801F027F807EE900A9FEDA0
:103D4000668A644887EE88AA01F006F80AEE900AAF
:103D5000624953486AEE2A8A03F01EF86AEE087A2E
:103D600002234F480093B7EEE77A53EC172B03F08A
:103D7000AFF95B494A4803F00FF8B7EECA7A05235A
:103D80004748009353EC172B03F0A2F955494448D8
:103D900003F01AF85449424802F0FEFFB7EEEA7AFF
:103DA00003233F48009353EC172B03F091F94F493D
:103DB0003B4803F009F84E49394802F0EDFF68EE40
:103DC000887A022336480093B7EEE77A53EC172B34
:103DD00003F07EF94749324802F0DEFFB7EEE87A99
:103DE00005232F48009353EC172B03F071F9424938
:103DF0002B4802F0E9FF34444049294807EE904A35
:103E0000B8EE677B87EE096BB7EEC66B66EE288A65
:103E100002F0C2FF28EE888A022321480093B7EE01
:103E2000C87A53EC172B03F053F935491C4802F0BC
:103E3000B3FFB7EEE87A05231948009353EC172B2C
:103E400003F046F92F49164802F0BEFF0DF58764CE
:103E500029462046FEF786F800232B4923541048B4
:103E600002F09AFF5AE029490D4802F0ADFF2849B7
:103E70000B4802F0A9FF2749094802F0A5FF26498F
:103E8000E1E700BFAFF300800000000080842E4116
:103E90000000000000005940E804070830FD060853
:103EA0004C3C00240105070831FD06082B050708D6
:103EB00041050708DAF906085305070865050708EC
:103EC000760507080CFA060866F80608C3F906081E
:103ED0008C2F0024602F002400007A447D05070801
:103EE00098FD06089EFD06088D050708DBFD0608FF
:103EF00097050708EEFD0608F4FD0608A505070866
:103F00000DFE060813FE06081AF90608B70507088D
:103F1000E1050708EE050708FF05070821463148B7
:103F200002F052FF2B21204624F068FC90B92D218D
:103F3000204624F063FC68B92A21204624F05EFC68
:103F400040B92F21204624F059FC18B92648FCF727
:103F50000FFE14E02046FEF72BF8041EF6D009DD14
:103F60002249204802F018FF0A2221461D4802F08B
:103F700076FFEBE71E491B4802F026FFE6E701202B
:103F8000FDF7EAF85CE50DF6380003F0D5F806E039
:103F9000F9E70DF6380003F0CFF8FFF7C1BB03A82F
:103FA00003F0CAF820F024FCF3E7F8E7EBE7EAE7D0
:103FB000E9E7EEE7F3E7E6E7E5E7E4E7E9E7EEE779
:103FC000E7E7FFF7ADBBE4E7E9E70DF6380003F0FC
:103FD000B3F80DF5876003F0AFF80EA8D5E7F8E762
:103FE000FBE7DCE74C3C00241106070826F906082D
:103FF0002906070807B5009313460A4601460448F8
:1040000019F08EFA003018BF012003B05DF804FBF0
:104010007474002407B5009313460A460146044809
:1040200019F060FB003018BF012003B05DF804FBFD
:10403000747400240A460146034808B519F026FCAA
:10404000003018BF012008BD747400242DE9F0432E
:10405000324C8BB0DFF8D0804FF00809D4F8E03054
:1040600000250127032643F0400305A94046C4F874
:10407000E030D4F8E03003F040030193019BCDE938
:104080000597CDE9075614F0D1FF2A464946404628
:1040900015F0B2F8D4F8DC3005A9214843F40073D8
:1040A000C4F8DC30D4F8DC3003F400730293029BD4
:1040B000D4F8E03043F00203C4F8E030D4F8E03044
:1040C00003F002030393039BD4F8E03043EA0903AF
:1040D000C4F8E030D4F8E030089603EA090304930A
:1040E000049B0223CDE90637092309934CF21803F8
:1040F000059314F09BFFC02305A90A4805930B23E1
:10410000099314F093FF2A4605217C2013F01AFE30
:104110007C2013F049FE0BB0BDE8F0830044025848
:1041200000040258000C02580018025808B57C2000
:1041300013F048FE034AD2F8DC3023F40073C2F8CF
:10414000DC3008BD0044025837B5134B0025134C32
:104150004FF4003123600623204663614FF480430F
:10416000C4E903312946C4E90155FFF76FFF012374
:104170008DF807309DF80730012B06D020462946E0
:10418000FFF7D4FF022003B030BD204619F04CFFEA
:10419000003018BF0120F6E70024024874740024A0
:1041A00070B5084C084D2046256019F0A5F9064663
:1041B000002120462560FFF7B9FF301C18BF012001
:1041C00070BD00BF7474002400240248014819F037
:1041D00083BF00BF7474002408B5034819F010FFB2
:1041E000043818BF012008BD74740024014601483A
:1041F00019F02ABE74740024704708B5FFF7FCFF5D
:1042000008BD704708B5FFF7FCFF08BDFFF7DEBF2C
:1042100000207047002070470368DB6A18474FF0A2
:10422000FF307047D0E902017047D0E904017047C0
:10423000D0E906017047D0E90931C26A006A4243F9
:1042400001FB0323A0FB010119447047004870479C
:10425000F90807085C300CF0F1BD5C300CF00CBEC6
:104260002DE9D04F9B460368924604465B6ADDE920
:104270000889984702460B465046594620F068FF89
:10428000134302D00020BDE8D08F236820465B6A2C
:10429000984702460B464046494620F059FF1343D3
:1042A000F0D11AEB0806236820464BEB09079B6BFD
:1042B0009847B94208BFB0422CBF01200020E2E776
:1042C00001682DE9F04114461D46096B06468847F2
:1042D00002460B462046294620F03AFF134302D0FF
:1042E0000020BDE8F081DDE906233046A71845EB44
:1042F000030817F1FF323368196B48F1FF33884721
:1043000002460B463846414620F022FF1343E7D1D0
:10431000336830469B6B9847414508BFB8422CBF75
:1043200001200020DDE700002DE9F743DDE90A6701
:10433000016804461546CDE90067496C88470028A6
:1043400030D023682046DB6C984794F8803043B91E
:1043500023682046144D1B6D9847284603B0BDE8DE
:10436000F083D4E908890021B6EB080042464B46A9
:10437000284420F0EDFE064642464B4628460021E2
:1043800020F0E6FE3146FFF755FE0028074D08BF36
:104390000025FFF721FF0028FBD1236820461B6D75
:1043A0009847DAE7024DD8E774ECFFFF6EECFFFFA9
:1043B00075ECFFFF2DE9F74FDDE90CAB0D46016809
:1043C000044690469946CDE900AB096C8847002821
:1043D00031D023682046DB6C984794F8803043B98D
:1043E00023682046154D1B6D9847284603B0BDE84D
:1043F000F08FD4E908675046594632463B4620F0D4
:10440000A7FE824632463B464046494620F0A0FE83
:10441000A36D014652462846094DFFF7FBFD0028D3
:1044200008BF0025FFF7D8FE0028FBD123682046EF
:104430001B6D9847D9E7034DD7E700BF74ECFFFF2A
:104440006CECFFFF75ECFFFF2DE9F74FDDE90CABDE
:104450000D460168044690469946CDE900ABC96B0C
:104460008847002831D023682046DB6C984794F8B1
:10447000803043B923682046154D1B6D9847284668
:1044800003B0BDE8F08FD4E908675046594632467C
:104490003B4620F05DFE824632463B46404649465A
:1044A00020F056FEA36D014652462846094DFFF7FF
:1044B000A1FD002808BF0025FFF78EFE0028FBD1D4
:1044C000236820461B6D9847D9E7034DD7E700BF07
:1044D00074ECFFFF6DECFFFF75ECFFFF38B5036870
:1044E0000546DB6C9847FFF75BFE2B68044685F8B2
:1044F000540020B128461B6D9847044838BD85F804
:10450000800028461B6D98472046F7E778ECFFFFB0
:10451000074B10B50360044690F880300BB1FFF7ED
:10452000DDFF04F15C000CF0C1FC204610BD00BFB3
:104530000809070810B50446FFF7EAFF882120465E
:104540000CF080F9204610BD38B503680446DB6CDA
:104550009847FFF7F9FD054684F8540050B12368E9
:10456000022D20461B6D02D19847104838BD984750
:104570000F48FBE704F13000FFF738FE236B2046BD
:104580002371636CC4E90235C4E90435C4E9063516
:10459000C4E90835236CC4E90A35012384F8803066
:1045A00023681B6D98472846E0E700BF73ECFFFFC8
:1045B00074ECFFFF2DE9D04F9B46036892460446FA
:1045C0009B6ADDE90889984702460B4650465946E2
:1045D00020F0BEFD134302D00020BDE8D08F236839
:1045E00020469B6A984702460B464046494620F0C3
:1045F000AFFD1343F0D11AEB0806236820464BEBBE
:1046000009079B6B9847B94208BFB0422CBF0120F5
:104610000020E2E70D4B4FF4007210B50360002359
:1046200004465C3040E9152340E9132340E9112397
:1046300040E90F230022002340E90D230CF0F6FB94
:104640004FF47A732046A36510BD00BF0809070820
:104650000020704770470368C9B21B6818474900BB
:104660000023C161C0F82C327047036801211B6B25
:10467000184710B403689C6B0123A4465DF8044BF3
:104680006047D0F82C32B3F5807F1FBF5A1CC0F8AA
:104690002C22C01880F82C1114BF01200020704774
:1046A0007047C0F830127047C0F834127047D0F825
:1046B00028312BB1D0F82431184490F820007047ED
:1046C0004FF0FF30704738B5036804465B6A98477F
:1046D000FC200CF083F8B4F91A20B4F91810054640
:1046E00007F018F9656138BDFC2128460CF0AAF8DE
:1046F00020F07EF80B6803604B6843608B68836032
:10470000704738B5D0F82C321446054600F596703F
:104710001A441844B2F5807F88BFC3F580742246DE
:1047200023F020FCD5F82C3220462344C5F82C3247
:1047300038BD38B5044640690D4608B107F003F8A6
:10474000206920B12946BDE8384007F03BB938BDA3
:1047500007B581F0010100F596720091D0F82C3276
:10476000C169406907F002F8002814BF0220002048
:1047700003B05DF804FB10B504460BF0E1F8D4F883
:1047800028410BF0F3F8204610BD10B504460BF09D
:10479000D7F8D4F82831BBB1D4F82831A3B1D4F874
:1047A0002431234493F82000D4F824310133DBB2C0
:1047B000C4F82431D4F82831013BC4F82831044628
:1047C0000BF0D4F8204610BD4FF0FF34F8E710B5D9
:1047D0000446406920B10368DB68984700236361A1
:1047E00023699BB1D4F838020CF007FCD4F83802E6
:1047F0000CF067FCD4F8380210B103685B68984786
:104800009C2120690CF01EF80023236110BD70B5B7
:10481000B2F5807FC2B083F00103044628BF4FF495
:10482000807202AE00934900154613464069324635
:1048300006F0BBFFC8B9A84218D0D4F82831B3F5A8
:10484000807F10D0D4F82031325C234483F82020BC
:10485000D4F820310133DBB2C4F82031D4F8283148
:104860000133C4F828310130E5E70025284642B07D
:1048700070BD70B50446C0B00025206907F0ABF8E4
:104880000328FAD8DFE800F05E021E1ED4F83432A6
:1048900003B19847D4F82C32002BEED00BF050F82F
:1048A00094F82C6204F596716846324623F05AFB60
:1048B000C4F82C520BF05AF832466946206907F0CA
:1048C0008EF8DAE70BF03CF8C4F82051F022C4F877
:1048D00024516946C4F82851206907F07EF8002267
:1048E00082421DDAD4F82831B3F5807F18D0D4F88D
:1048F0002831B3F5807F11D0D4F820311DF8021093
:10490000234483F82010D4F820310133DBB2C4F8FB
:104910002031D4F828310133C4F828310132DFE7DF
:104920000BF024F8236820461B6998470028A4DD73
:10493000D4F83062002EA0D0236820461B69984727
:10494000B0479AE702F02EFE97E70022C260704758
:10495000C3680BB19B6818477047000038B5002545
:104960004FF47A7304460183428329464FF48072E0
:10497000C0E901530A4BC0E904550360203023F01D
:10498000EFFBC4F82051C4F82C522046C4F824513F
:10499000C4F83052C4F82851C4F8345238BD00BFAE
:1049A0007C09070810B504460021FFF7CEFF20461A
:1049B00010BD10B50446FFF7CBFF204610BD10B464
:1049C000D0E9003409686210E4075DF8044B01EB9C
:1049D000020044BF8A58D35818470146043008B52E
:1049E000FFF7EDFF08BD0000034A0346C26007C998
:1049F00083E80700704700BF5C09070810B586B060
:104A000004460391684606A980E80C0001E90C0001
:104A1000204603A9FFF7E8FF204606B010BD37B5D2
:104A20006C46054684E80C0094E80C00FFF7E6FFAE
:104A3000284603B030BD00002DE9F041036805466B
:104A400088B00E465B6A98479C200BF0C7FEB5F90C
:104A50001A20B5F91810044606F09AFF7100204696
:104A60002C6106F0B1FFBC200BF0B8FE04460646F0
:104A7000234B04F1400746F8043B3046FFF792FF12
:104A8000002138460CF034FA04F1540840460CF08A
:104A9000CDF91C4B4FF400621821204600930023EF
:104AA0000CF0A0FA184B294604A8C5F83842029326
:104AB0000023039302AB0CCBFFF7B1FF04A9204600
:104AC0000CF03AFB10E040460CF0F0F938460CF0E0
:104AD00038FA3046FFF76DFFBC2120460BF0B2FEDE
:104AE0001FF086FEF2E7F4E704A8FFF762FF08B0C4
:104AF000BDE8F0819C21F0E704A8FFF75AFFEFE73B
:104B00007C280708680907087348040808B5FFF7F8
:104B100064FF08BD08B5FFF7F9FF08BD10B50B200D
:104B200002F0F8FC04460C2002F0F4FC2146024698
:104B30000748FFF713FF162217210648FFF70EFF5D
:104B40007B227C210448BDE81040FFF707BF00BF6F
:104B5000A02F0024DC3100241834002470B5044652
:104B6000C0680E4615460368217CDB6A9847E068FA
:104B7000314603681B689847E068290A03681B6888
:104B80009847E068E9B203681B689847E0680368E3
:104B9000BDE870405B6B18474FF400420021FFF7FF
:104BA000DDBF00000000000007EE902A9FED1A7A9A
:104BB00027EE877A07EE901A052127EE275AB7EEDF
:104BC000C77AB7EEC55A9FED0E4B84EE056B9FED8D
:104BD0000E5BBCEEC66B16EE102A85EE076B92B22A
:104BE0008282B7EEC66B80ED086A9FED096B27EEF7
:104BF000067BB7EEC77B80ED097AFFF7AFBF00BF3A
:104C0000F168E388B5F8743FFCA9F1D24D62503FDA
:104C100000000000006AD8400000003838B50446A3
:104C2000C0680D460368217CDB6A9847E068294626
:104C300003681B689847E068002103681B6B98476E
:104C400084F82800E0680222217C0368DB6B984727
:104C5000E06803681B69984768B1E06803685B69AE
:104C60009847C5B2E06803685B699847C0B200EB3B
:104C7000052080B238BD0546F9E710B581800021D6
:104C80000446FFF7CBFF20F460600021A28880B2C9
:104C900002432046BDE81040FFF760BF70B51446E0
:104CA0000E4600210546A401FFF7B8FF20F4FC7270
:104CB00044EAC604284692B200212243BDE870406F
:104CC000FFF74CBF0A46FFF7E9BF10B5C1710021DD
:104CD0000446FFF7A3FF20F007000021E27980B22D
:104CE00002432046BDE81040FFF738BF38B5044600
:104CF000C0680368217CDB6A9847E06803685B6BE7
:104D00009847054610BB2046FFF746FF4FF4006268
:104D100005212046A282FFF721FF29462046FFF702
:104D2000ACFF04212046FFF7CDFF20460721FFF707
:104D3000CCFF074B012065702362064BA5706362B0
:104D40004FF07E5384F82850A36138BD0020FCE763
:104D5000000020420000203F08B50221FFF75EFF5F
:104D600007EE900A9FED066BB8EEE77B27EE067B19
:104D7000F7EEC77B17EE900A08BD00BFAFF30080C7
:104D80007B14AE47E17A543F10B504210446FFF787
:104D900045FF00B294ED087A07EE900AF8EEE77A44
:104DA000C7EE877A17EE900A10BD10B503210446AE
:104DB000FFF734FF07EE900AB8EEE77AD4ED097AF0
:104DC00067EE277A17EE900A10BD30B5A1F11004F6
:104DD000002500F00F02CD7302390009D3B2092A71
:104DE000CCBF373330330B748C42F2D130BD2DE958
:104DF000FF470024061D05468A46904699460094C2
:104E000023464FF0FF32B1213046CDE9014406F090
:104E10004BFF29682846DDE90C23CDE900234246F3
:104E20004F694B465146B847009423464FF0FF3236
:104E3000C1213046CDE9014406F036FF204604B0DA
:104E4000BDE8F087C2207047244830B5037887B0AA
:104E5000BFF35B8F13F001041CD10BF07DFAC8B1D6
:104E60001F4B66223B211F48CDE903435A23CDE95E
:104E700001323D233C22009357230DF02BFB194CAC
:104E8000194B164823600BF089FA184A2046184936
:104E90000BF04AFA13480DF057FD164D1A22002365
:104EA00029461048CDE9002300230022FFF79FFF89
:104EB0002B780446B52B04D10F4B01221D600F4BFC
:104EC0001A7008480DF09CFBB4FA84F0400907B052
:104ED00030BD02480BF06AFC1FF08AFC78360024D3
:104EE000005A620280360024D4090708000000241A
:104EF000F150040888380024100000247C36002477
:104F00000D4B187830B10D4B1B689A8840F2024364
:104F10009A420FD80A4B9B6D03F46043B3F5004FE0
:104F200007D0064B1B685878172894BF0020012033
:104F300070470020704700BF7C360024100000241A
:104F40000044025810B5044611F0F8FF2146FFF75F
:104F50003CFF11F0F9FF04F11001FFF736FF11F0EB
:104F6000F9FF04F12001FFF730FF302010BD0000F1
:104F700008B54DF659720021074818F035FABFF30D
:104F80004F8F0649064BCA6802F4E0621343CB60B8
:104F9000BFF34F8F00BFFDE75436002400ED00E063
:104FA0000400FA0510B50446FFF7D2FC204610BDF8
:104FB000064B10B504460360806A08B109F092FE02
:104FC000201DFFF7EFFF204610BD00BF5C1607084D
:104FD00000B5C3B01622172103A806F09BFC4FF4BE
:104FE000A17302AA1021ADF80830002303A8009392
:104FF000022306F0BBFB03A8FFF7DAFF43B05DF81E
:1050000004FB03A8FFF7D4FF1FF0F2FB1D4B0121A7
:105010001D4AA62070B51A6002F08EFB0121A62061
:1050200002F00AFCFFF7D4FF184B43F2D2021A60D9
:10503000FFF70AFF164B1B7833B1164B1B689A8893
:1050400040F209439A421BD8134B9B6D03F4604313
:10505000B3F5004F14D002F077FA104D044602F079
:1050600085FA064602F082FA801BA842FAD902F0BD
:105070006BFA001B642803D0BDE870401DF034BA01
:1050800070BD00BF5436002400400058004000525C
:105090007C36002410000024004402589F86010042
:1050A00010B50446FFF784FFFC2120460BF0CAFB35
:1050B000204610BD38B5074B0546044645F8BC3BB5
:1050C0000DF09EFA28460BF0F1FE201D06F02CFE96
:1050D000204638BDAC34070810B50446FFF7EAFF98
:1050E0004FF4027120460BF0ADFB204610BD0000CE
:1050F000034B10B504460360FFF7DCFF204610BDEC
:10510000D409070810B50446FFF7F2FF4FF4027107
:1051100020460BF097FB204610BD70B590F8343157
:1051200005461446F3B90368DB69984704F47063D5
:1051300004F00F02B3F5407F04F0F0030CBF072129
:105140000821302B0CBF02230123012A08D0901E16
:1051500042424241A869BDE87040006806F0B0BE16
:105160000222F7E770BD10B590F8343104462BB930
:10517000A369186806F0E8FE0028F9D010BD38B51C
:1051800090F834510446A5B983695BB1186848B1F9
:105190000368DB689847A36904211D60A0690BF0D0
:1051A00051FBA5610023C4F82831C4F82C31C4F8A0
:1051B000303138BD13B590F8343104466BBBA36968
:1051C000186806F095FE40B30AF0BAFBA369012205
:1051D0000DF10701186803685B699847D4F830310E
:1051E000B3F5807F16D0D4F83031B3F5807F11D07D
:1051F000D4F828319DF80720234483F82820D4F8D8
:1052000028310133DBB2C4F82831D4F8303101330E
:10521000C4F830310AF0AAFBD1E702B010BD00009B
:1052200008B590F834313BB1012002F0ABF90648E3
:10523000BDE8084001F059BA82691AB11368003319
:1052400018BF0123184608BD1843002470B5044652
:105250000D4601F04AFA30B12368294620461B6CFE
:10526000BDE87040184770BDA0F59860EEE70000FB
:1052700013B590F8343104468DF807102BB1C9B23C
:105280000B48FFF7E3FF02B010BDA369186806F0F2
:105290005BFE0028F9D0A36901220DF1070118680F
:1052A00003681B699847013018BF0120EBE700BF76
:1052B000184300242DE9F04107468846164601F0C0
:1052C00014FA80B10024A6420ED9351B08EB040164
:1052D0003846B5F5007F28BF4FF400752A462C44A8
:1052E00000F044FFEFE704462046BDE8F081A0F55A
:1052F0009860DFE770B590F8343105460E461446E5
:105300002BB10F48FFF7D6FF0446204670BDAB69AE
:10531000186806F019FE0028F9D0AB690121186859
:10532000D0F8883088301B6B9847AB6922463146ED
:10533000186803681B699847013008BF0024E4E738
:105340001843002430B50446C3B001F0B9F905464E
:10535000D4F8D835C3F58073984203DDD4F8D85516
:10536000C5F580752A4601AB02A9204600F0F5FF7D
:10537000019902AB00226D1A1D44D4F8D835B3F55B
:10538000807F19D08A4217D0D4F8D835B3F5807F02
:1053900010D0D4F8D035A85C234483F8D004D4F8D6
:1053A000D0350133DBB2C4F8D035D4F8D835013369
:1053B000C4F8D8350132E0E743B030BD38B5044613
:1053C00000F0BCFB2046FFF7BDFFD4F8D8552046BF
:1053D00000F0BCFB284638BDA0F59860EEE7000061
:1053E00010B590F8343104462BB10648FFF7E6FFBC
:1053F0000446204610BD0AF0A3FAD4F830410AF062
:10540000B5FAF6E71843002438B5044600F096FBD9
:105410002046FFF797FFD4F8D8354BB1D4F8D435F0
:10542000234493F8D054204600F090FB284638BD22
:105430004FF0FF35F7E7A0F59860E5E710B590F875
:10544000343104462BB10B48FFF7DEFF04462046FB
:1054500010BD0AF075FAD4F830313BB1D4F82C0104
:10546000044494F828400AF081FAF0E74FF0FF3442
:10547000F9E700BF1843002438B5044600F05EFB8E
:105480002046FFF75FFFD4F8D835A3B1D4F8D43560
:10549000234493F8D054D4F8D4350133DBB2C4F8A4
:1054A000D435D4F8D835013BC4F8D835204600F0BF
:1054B0004DFB284638BD4FF0FF35F7E7A0F5986063
:1054C000DAE7000010B590F8343104462BB11148EA
:1054D000FFF7D2FF0446204610BD0AF031FAD4F897
:1054E00030319BB1D4F82C31234493F82800D4F800
:1054F0002C310133DBB2C4F82C31D4F83031013B0C
:10550000C4F8303104460AF031FAE4E74FF0FF34D2
:10551000F9E700BF1843002408B54FF4807200215A
:1055200022F01EFE0022C0F80021C0F80421C0F8BD
:10553000082108BD10B4D0E9003409686210E407FE
:105540005DF8044B01EB020044BF8A58D35818475A
:105550000146043008B5FFF7EDFF08BD034A0346D6
:10556000C26007C983E80700704700BF240A070824
:1055700010B586B004460391684606A980E80C0081
:1055800001E90C00204603A9FFF7E8FF204606B01A
:1055900010BD37B56C46054684E80C0094E80C0055
:1055A000FFF7E6FF284603B030BD000070B590F865
:1055B000343186B004460E46002B3BD1856925B9AF
:1055C00004200BF00BF9A0610560A369186850BBBB
:1055D0008C200BF003F93346B4F922200546B4F9C8
:1055E000201006F099FFA3691D60B4F92420531C14
:1055F00006D0A0690321B4F92630006806F09CFFAC
:10560000A3691D68B5B1114B0026214602A800937D
:105610006B4601960CCBFFF7BCFF324602A9284629
:1056200006F000FD03E0314606F037FCDDE702A896
:10563000FFF7BFF906B070BD8C2128460BF002F9C8
:105640001FF0D6F802A8FFF7B4F9F9E7B55104083E
:1056500008B5FFF77DFF08BD08B5FFF7F9FF08BDE6
:105660002DE9F84300242D4D4FF47A782C4F202655
:1056700005F128002F60EC61C5E90148C5E9056422
:10568000FFF74AFF01230E2085F8343101F042FF75
:10569000244D81460D2001F03DFFA5F820904FF6E6
:1056A000FF79688405F128002F60EC61A5F824904B
:1056B000A5F82690C5E90148C5E90564FFF72CFF68
:1056C00085F834410F23184D2B84562305F128000B
:1056D0002F606B845823EC61AB845923C5E90148E2
:1056E000EB84C5E90564FFF717FF85F8344198237B
:1056F0000E4D2B84992305F128002F60EC616B84FB
:10570000A5F82490A5F82690C5E90148C5E90564E7
:10571000FFF702FF85F83441BDE8F8834C3C0024D4
:10572000380A0708A4380024DC390024143B00247C
:10573000002070477047704710B5D0F88C452CB1E9
:1057400023682046DB6A9847A468F8E710BD38B59F
:105750000D46D0F88C4534B1236820462946DB68D5
:105760009847A468F7E738BD00487047F80A07086B
:10577000054B10B50446036008F053F9204608F0C5
:1057800061FA204610BD00BF780A070810B504462C
:10579000FFF7EEFF4FF4B26120460BF053F82046BE
:1057A00010BDF7B5002305460E46D0F88C45A4B1D0
:1057B000236831460DF1030220461F6901ABB8474B
:1057C0009DF803100346042905D0019A284607F0E6
:1057D00037FC03B0F0BDA468E9E7019A9DF8031017
:1057E000F4E770B505460E4622B10021BDE87040D1
:1057F00007F032BAD0F88C455CB1236800223146FC
:1058000020465B69984710B101212846EEE7A4685D
:10581000F2E72146F9E770B50E460546D0F88C450B
:1058200000213CB12368314620469B699847A46813
:105830000146F6E72846BDE8704007F001BBF8B521
:1058400005460E461746D0F88C453CB123682046E5
:105850003A463146DB699847A468F6E728460121B5
:10586000BDE8F84007F04ABB70B5002186B0044699
:1058700007F031FD00234FF48975A188EF26ADF8BC
:1058800006302389ADF8045002258DF810301B0A2C
:10589000E2888DF8113040F201238DF80750ADF801
:1058A000123040F203138DF809500125ADF8143081
:1058B00004F10A038DF8086005AE8DF80A501C4605
:1058C0008DF80C1001AD090A8DF80E20120A8DF822
:1058D0000B008DF80D108DF80F202A46083303CAEF
:1058E000B24243F8080C43F8041C1546F5D112885F
:1058F00020461A8006B070BDF8B5002406460D4655
:105900002746304623F0DCF9A04207D9335D05F87D
:10591000143005EB440301345F70F2E7400000F0FF
:10592000FE00F8BD38B50446D0F88C5535B12B686B
:1059300028465B6A984710B9AD68F7E7284640F2F9
:10594000023304F24A51A4F84835FFF7D5FF94F822
:105950004835184484F8480504F5A96038BD0000AE
:1059600040F2023300F20A5110B50446A0F808359F
:105970000548FFF7C1FF94F80835184484F8080576
:1059800004F5A16010BD00BF640A070840F20233AD
:1059900010B50446A0F8C83400F2CA40FFF7D2FAA6
:1059A00094F8C834184484F8C80404F5996010BD0C
:1059B0002DE9FF4100231D4A044600F54E788DF87D
:1059C0000A30092590F888350192FA228DF80830BE
:1059D00001238DF80C208DF80930C0238DF80B3091
:1059E00001AB03CBC4F83803C8F8041088F80820CA
:1059F000D4F88C658EB13368002130469B68984797
:105A0000478805F54E7300F10901093FE0183A4651
:105A10003D4422F0A7FAB668ECE784F83A534046D2
:105A20002D1284F83B5304B0BDE8F0810902FFFF5A
:105A300073B504460D4616461BF0C0FB4FF4807349
:105A400001462A4620460093334608F0B7F8024B39
:105A50002046236002B070BD780A070810B5D0F860
:105A60008C350446A3B9C0F88C1594F888350846DF
:105A70004A790B7194F88835134484F888350B689B
:105A80009B6A9847238918442081012010BD134642
:105A90009A68002AFBD19960E7E71FB5044607F032
:105AA00015FC0146684606F00FFE4021684606F0E8
:105AB0007DFED4F88C4534B12368694620461B6AC4
:105AC0009847A468F7E7684606F005FE04B010BDE5
:105AD000684606F000FE1EF08BFE10B50446FFF788
