:020000040804EE
:10000000000008241D6E0508696E0508F1BA040891
:10001000F7BA0408FDBA040803BB04080000000096
:100020000000000000000000000000004943040838
:10003000696E050800000000E3430408F343040868
:10004000696E0508696E0508696E0508696E050820
:10005000696E0508696E0508696E0508696E050810
:10006000696E0508696E0508696E0508696E050800
:10007000696E0508696E0508696E0508696E0508F0
:10008000696E0508696E0508696E0508657E0508D4
:10009000757E0508717E0508817E0508696E050874
:1000A000696E0508696E0508696E0508696E0508C0
:1000B000696E0508696E0508696E0508696E0508B0
:1000C000696E0508696E0508696E0508696E0508A0
:1000D000696E0508696E0508696E0508696E050890
:1000E000696E0508696E050800000000696E050864
:1000F000696E0508696E0508696E0508696E050870
:10010000696E0508256B0508696E0508696E0508A6
:10011000696E0508696E0508696E0508696E05084F
:10012000696E0508696E0508696E0508696E05083F
:10013000696E050827720408696E0508696E05086E
:10014000696E0508696E05080000000000000000E7
:10015000696E0508696E0508696E0508696E05080F
:10016000696E0508696E0508696E0508696E0508FF
:10017000696E0508696E0508696E050800000000D3
:10018000696E0508696E0508696E0508696E0508DF
:10019000696E0508696E0508696E0508696E0508CF
:1001A000696E0508696E0508696E0508696E0508BF
:1001B000696E0508696E0508696E0508696E0508AF
:1001C000696E0508696E0508696E0508696E05089F
:1001D000696E0508696E0508696E0508696E05088F
:1001E000696E0508696E0508696E0508696E05087F
:1001F000696E0508696E0508696E0508696E05086F
:10020000696E0508696E0508696E0508696E05085E
:10021000696E0508696E0508696E0508696E05084E
:10022000696E0508696E0508696E0508696E05083E
:10023000696E0508196E0508696E0508696E05087E
:10024000696E0508696E0508696E0508696E05081E
:10025000696E0508696E0508696E0508696E05080E
:10026000696E0508696E0508696E0508696E0508FE
:10027000696E0508696E0508696E0508696E0508EE
:10028000696E0508696E0508696E050800000000C2
:10029000696E0508696E050810B5054C237833B9F9
:1002A000044B13B10448AFF300800123237010BD49
:1002B00080180024000000008483060808B5034B62
:1002C0001BB103490348AFF3008008BD00000000E4
:1002D0008418002484830608154B002B08BF134B99
:1002E0009D46A3F5803A00218B460F461348144AD9
:1002F000121A1DF03DFF0F4B002B00D098470E4BFC
:10030000002B00D098470020002104000D000D486C
:10031000002802D00C480CF0A5FA1DF00DFA2000C0
:10032000290006F0F5F90CF0B1FC00BF0000080050
:1003300000000824000000006D66040880180024F6
:1003400018FB002465C80408000000002DE9F843EC
:10035000044600EB0108DFF844900E4D0E4E444574
:1003600012D0237827460F2B03D84946284603F09E
:1003700073FB397810222846013403F0E5FB31463F
:10038000284603F069FBEAE70248BDE8F84303F0BA
:100390006BBB00BFE4210024CB4F0608D27B0608CC
:1003A00038B5451E00F10F044FF4807003F024FAB5
:1003B00005F8010FA542F7D138BD70B502F10F0560
:1003C0000E461446014625F00F0530461DF0D2FDBD
:1003D0002B1B3444DBB2A21B954202D904F8013B2B
:1003E000F9E7284670BD29B1084410F8013C102BEC
:1003F00098BFC91A0846704700F1FF3C002300204F
:1004000000212DE9F0431CF8018FA3F12007C3F16F
:10041000200208FA03F408FA07F528FA02F2083372
:1004200020431543402B41EA0501ECD1BDE8F083A0
:10043000013A002370B5C3F12006A3F1200520FA8C
:1004400003F4083301FA06F621FA05F5402B44EAD5
:10045000060444EA050402F8014FECD170BD000027
:100460002DE9F04FB5B00F46064660229F491CA803
:100470001DF080FDC7F10C071CAB03EBC70CACF102
:10048000080C0B2F00F32F810137D6E908ABD6E912
:100490000023D6E9028983EA0B0182EA0A00D6E941
:1004A0000634CDE9040183EA0A0384EA0B049A4680
:1004B000A346D6E90423D6E902015040594002463A
:1004C0000B46FCE9020182EA000483EA0105CDE95A
:1004D0000245DDE90223D6E90245D6E9060122EA12
:1004E000040223EA05032AEA00002BEA010114466C
:1004F0001D46DDE9042362406B4014461D46DDE9DC
:10050000022342404B40CDE90623DDE90423DDE927
:10051000020129EA030928EA020889EA0B0388EAAA
:100520000A02CDE90023D6E9062322EA000023EAE5
:10053000010180EA040281EA0503D6E90201504084
:100540005940DDE90023894662406B40CDE9022332
:10055000DDE9043423EA0A0324EA0B04DDE906ABEF
:100560008AEA030A8BEA040BD6E9063483EA0A0313
:1005700084EA0B04CDE90434029B4FEAD34E039B7B
:100580004EEA43330893039B4FEAD34E029B4EEA55
:100590004333DDE906AB0993029B6FEA0A0A6FEA6F
:1005A0000B0B4FEA137E039B4EEA03130A93039B44
:1005B0004FEA137E029B4EEA03130B93DDE90A1206
:1005C000DDE908344B40544025461C46DDE9022352
:1005D00062406B4014461D46C6E900454FEAC90417
:1005E00044EA5073C4000D9344EA59734FEA4964D6
:1005F0000C9344EAD01344060F9344EAD9130E93A4
:10060000DDE90E23DDE90C4554405D4080EA04023B
:1006100089EA0503C6E902234FEA5A0343EACB738A
:1006200010934FEA5B0343EACA7311934FEA9A139C
:1006300043EA8B6312934FEA9B1343EA8A63139353
:10064000DDE91201DDE910234B4042408BEA030152
:10065000049B8AEA0200059A9B0A43EA8253149398
:10066000930A049A43EA82531593530C059A43EA7A
:10067000C2331693530C049A43EAC233C6E9040109
:100680001793DDE91601DDE91423DDE904AB4B40E6
:1006900042408BEA030B009B8AEA020A019ADB09BB
:1006A00043EA42631893D309009A43EA42631993D9
:1006B000019BDB0543EA52231B93D305019A43EACE
:1006C00052231A93DDE91A01DDE91823C6E906ABC6
:1006D00042404B4010461946DDE9002342404B4062
:1006E000C6E90823CDE635B0BDE8F08F1837060817
:1006F0002DE9F84F0E46044608461546FFF77CFEE6
:10070000824606F108008B46FFF776FE06460F4646
:10071000284615A3D3E90023C4E902ABC4E90023AA
:10072000C4E90467FFF768FEC4E9060105F10800A3
:10073000FFF762FEC4E908010C212046FFF790FE96
:10074000D4E90623D4E908018AEA02088BEA0309FE
:1007500080EA060281EA0703C4E90689C4E908239E
:10076000BDE8F88FAFF3008000000000060C408069
:100770002DE9F04F054685B08A46144662B9062138
:10078000D0E9002382F001061F46C0E9006705B0EA
:10079000BDE8F04FFFF764BE0023A1F1080203F1AA
:1007A000080BD5E900015C45CDE9000111D302EB4E
:1007B0000B000392FFF720FEDDE9002342404B408F
:1007C00028460621C5E90023FFF74AFE5B46039A47
:1007D000E5E79C4240D94FF0000C00260027E41AC0
:1007E0009A44644516D94FEACC031AF80C100CF160
:1007F000010CA3F1200BC3F1200E01FA03F801FA5A
:100800000BF921FA0EFE46EA080649EA0E0947EA04
:100810000907E6E7E4008023A4F1200CC4F12002DC
:1008200003FA04F803FA0CF923FA02F246EA080084
:1008300049EA020947EA0901DDE9006746404F40FD
:10084000C5E90067D5E9002382F001001946C5E932
:100850000001062128469AE76307F3D1DDE9006726
:1008600007F10047ECE72DE9F04F1C468BB0A1F1F2
:10087000080305460F464FF0000C0093A2F1080351
:10088000099206930CF10806A6421DD8009B981900
:10089000FFF7B2FDD5E9008988EA000289EA010381
:1008A00090469946069B404649469A19FFF7C0FD77
:1008B00042464B46A642C5E9002303D206212846FC
:1008C000FFF7CEFDB446DDE7A44580F0A48000220A
:1008D00000230021A4EB0C046744CDE906238C42DD
:1008E00018D9CB0017F801800131A3F1200EC3F114
:1008F000200008FA03FA08FA0EFB28FA00F0DDE9F6
:1009000006234BEA000B42EA0A0243EA0B03CDE955
:100910000623E4E7E30080220027A3F1200AC3F1C5
:10092000200E02FA03F322FA0EFE02FA0AF10093F5
:1009300041EA0E01BE460191DDE90023DDE90689A9
:1009400048EA020849EA0309D5E9002383EA0901D4
:10095000099B82EA080063441E46744514D04FEA9E
:10096000CE07C7F12008A7F1200C20FA07F701FAFB
:1009700008F821FA0CFC47EA080747EA0C0706F8D2
:100980000E700EF1010EE8E74FF0000C4FF000087A
:100990004FF00009E64533D04FEACC040CF1010CCE
:1009A000C4F12007A4F1200620FA04F3A4F1200BDF
:1009B00001FA07F721FA06F6C4F1200A3B43334354
:1009C000029321FA04F30393DDE90267002706F09E
:1009D000FF0607FA04F306FA0BFB26FA0AFA43EAC3
:1009E0000B0343EA0A03059306FA04F30493DDE9D3
:1009F000043443EA080344EA09049846A146C9E7D7
:100A0000DDE9000140EA080041EA0901C5E9000109
:100A10000BB0BDE8F08F6307FAD1002CF8D0D5E910
:100A20000023104603F10041F0E72DE9F04F1C468A
:100A300087B0A1F10803054689464FF0000C0493E6
:100A4000A2F10803039205930CF10806A6421ED8F2
:100A5000049B9819FFF7D0FC059BCDE90001DDE967
:100A60000078D5E900019A19474088EA010838461C
:100A70004146FFF7DDFCA642DDE90023C5E900237E
:100A800003D206212846FFF7EBFCB446DCE7A44579
:100A900057D2002200230021A4EB0C04E144CDE94D
:100AA00000238C4218D9CB0019F801600131A3F161
:100AB000200EC3F1200006FA03FA06FA0EFB26FA0E
:100AC00000F0DDE900234BEA000B42EA0A0243EAA8
:100AD0000B03CDE90023E4E7039B0022D5E90001E5
:100AE000DDE90067634446404F409846944212D087
:100AF000D300C3F1200EA3F1200C26FA03F307FA6A
:100B00000EFE27FA0CFC43EA0E0343EA0C0308F836
:100B100002300132EAE7E4008021A4F1200CC4F1A4
:100B2000200001FA04F201FA0CF321FA00F0DDE9E9
:100B30000067034316431F43C5E9006707B0BDE8DC
:100B4000F08F6307FAD1002CF8D0D5E900231046C6
:100B500003F10041C5E90001F0E72DE9F04B8846BB
:100B6000044608461546FFF747FC064608F108000C
:100B70000F46FFF741FC80468946D4E9022382EA0A
:100B8000060083EA0701D4E90423C4E902014046D0
:100B9000494650405940C4E904010C212046FFF762
:100BA0005FFCD4E90601D4E9082380EA060B81EA58
:100BB000070C88EA020889EA0309C4E906BCC4E90B
:100BC000088965B12A4658466146FFF731FC05F1B0
:100BD0000802D4E90801BDE8F04BFFF729BCBDE8E5
:100BE000F08B421E01390F30002330B512F8014F4F
:100BF00011F8015F824284EA050443EA0403F5D157
:100C0000B3FA83F0400930BD2DE9F04192B00C46B3
:100C10008046174668466E46FFF7C2FB04AD224683
:100C20003346083203CBAB4242F8080C42F8041CAE
:100C30001E46F5D108AE6A4612493046FFF758FD08
:100C4000002230461146FFF793FD3B4604F11002A7
:100C500041463046FFF707FE2A460A493046FFF76D
:100C60007CFFE31910332A46083303CAB24243F823
:100C7000080C43F8041C1546F5D107F1200012B00A
:100C8000BDE8F081193A06082DE9F04F97B0924679
:100C9000044689466B46054600F110081A46286846
:100CA000083555F8041C1E46454503C63346F6D1A3
:100CB000544404AEA4F11005B3462868083555F82D
:100CC000041C3746A54203C73E46F6D10CA80D4981
:100CD000FFF70EFD00220CA81146FFF749FDAAF10F
:100CE00020034A4641460CA8FFF79FFE08AA0CA81D
:100CF0000449FFF732FF08A95846FFF772FF17B003
:100D0000BDE8F08F193A06082032FFF7BDBF013861
:100D1000002210B510F8013F8C1833B1202BF9D008
:100D2000092BF7D001322370F4E7237010BD0000C7
:100D300010B5C4B004461022002168461DF018FA10
:100D400004A92046FFF7E3FF2B4904A81EF0C2F9CF
:100D500098B92A4904A81EF0BDF970B9284904A819
:100D60001EF0B8F948B9274904A81EF0B3F920B914
:100D7000254904A81EF0AEF9A0B11E2423496846F7
:100D80001DF00CFF3D2104A81DF01CFD38B1694683
:100D900001301DF099FD002818BF4FF0FF342046A8
:100DA00044B010BD1A4904A81EF094F928B119499D
:100DB00068461DF0F3FE0A24E4E7174904A81EF074
:100DC00089F90028F3D1154904A81EF083F928B148
:100DD000134968461DF0E2FE1424D3E7114904A824
:100DE0001EF078F928B1104968461DF0D7FE192485
:100DF000C8E70446D3E700BF7837060881370608FE
:100E0000883706089137060898370608F93A060821
:100E1000A0370608A7370608A4370608AA37060829
:100E2000AE370608B1370608B737060838B50446A6
:100E30000D4601461C4802F0ACFFA2681B4B1A602D
:100E4000531EEF2B05D91A491A48BDE8384002F065
:100E50001BBE19492068FFF7B0FA184B184A1860F2
:100E600000231360174A1560174A1360174A13606E
:100E7000174A136003F0C4F8164B01221649186094
:100E8000164B0C481A7002F0E7FD0A222946094861
:100E900002F021FE1249074802F0F6FD114905480B
:100EA00002F0F2FD1049CFE7D01B0024C01A002445
:100EB000BA370608E4210024C41A0024C41B002405
:100EC0009C180024E81B0024E01B0024DC1B0024E9
:100ED000E41B0024C81B0024CE370608CC1B0024CA
:100EE000F237060802380608393806080000000004
:100EF0002DE9F0412DED088B82B0C14D03F080F853
:100F0000DFF87C83BF4B02272A681C68D8F80030C2
:100F1000BD4E041B1344BD49BD4808EE103A33686A
:100F20005B00B8EE487A07EE903AF8EEE77AC7EE43
:100F3000278A02F0A9FDB749B54802F08DFD0A22C3
:100F4000D8F80010B24802F0F2FDB349B04802F000
:100F50009BFDB249AE4802F07FFD0A222968AC48E9
:100F600002F0E5FDAC49AA4802F08EFDAC49A84864
:100F700002F072FD0A2218EE101AA54802F0D7FD01
:100F8000A549A34802F080FDA649A14802F064FDEE
:100F90000A2221469E4802F0CAFDA3499C4802F05D
:100FA00073FDA2499A4802F057FDB8EE487B0097BE
:100FB00097489FED8D6B87EE065B07EE904A9C4C41
:100FC000B8EE677B85EE076B9FED897B26EE077B8E
:100FD000B7EEC77BB7EEC77A53EC172B02F048FE8B
:100FE00094498B4802F050FD9349894802F034FD42
:100FF000D6ED007A98ED007AF8EEE77A8F49B8EEF0
:10100000477A834887EE27BA95ED007A8C4DB8EE83
:10101000477A87EE27AA02F01FFD00977C48B7EEBB
:10102000CBBA53EC1B2B02F023FE7B49784802F02D
:101030002BFD8449764802F00FFDB7EECAAA00974F
:10104000734853EC1A2B02F013FE7349704802F0F8
:101050001BFD7D496E4802F0FFFCB7EEE87A009771
:101060006B4853EC172B02F003FE6B49684802F003
:101070000BFDD4ED007A754BB8EE679B744993ED88
:10108000008A6348B8EE488B9FED5B7B29EE079B97
:1010900028EE078B02F0E0FC0A225D4889EE0B7B0C
:1010A000FCEEC77B17EE901A02F041FD69495848E3
:1010B00002F0EAFC6849564802F0CEFC89EE0A7B51
:1010C0000A225348FCEEC77B17EE901A02F02FFD60
:1010D00060494F4802F0D8FC60494D4802F0BCFC22
:1010E00088EE0B7B0A224A48FCEEC77B17EE901A6B
:1010F00002F01DFD5749464802F0C6FC58494448D5
:1011000002F0AAFC88EE0A7B0A224148FCEEC77B6B
:1011100017EE901A02F00BFD4E493D4802F0B4FC68
:101120002B6833B34F493A4802F096FC0A222968EB
:10113000374802F0FCFC3849354802F0A5FC4A4922
:10114000334802F089FC95ED007AD6ED007AB8EECE
:10115000477A0097F8EEE77A2D48C7EE276AB7EE90
:10116000E67A53EC172B02F083FD2B49284802F056
:101170008BFC3E49264802F06FFC21683C48203138
:10118000202928BF2021FFF7E1F83A49204802F042
:1011900063FC39491E4802F077FC282136481DF0CF
:1011A00011FB002871D0292133481DF00BFB0028CA
:1011B0006BD03D2130481DF005FB002865D03F2154
:1011C0002D481DF0FFFA00285FD02B48FFF7B0FD37
:1011D0000446002859D029490D4802F03DFC0A2256
:1011E00021464FE0AFF300800000000000408F4038
:1011F00000000000000059400000000080842E41E3
:10120000DC1B0024C81B0024E81B002458380608F7
:10121000E4210024623806087A3806087F38060878
:1012200097380608AD380608C4380608C8380608D6
:10123000C41B0024DB380608DD380608FA38060827
:10124000E41B00240939060818390608C01A0024CE
:101250002D390608453906084E390608663906084C
:101260007B39060890390608A8390608B7390608F8
:10127000A0190024D9390608A0180024E539060869
:10128000E01B0024054802F048FC054B00221A70C0
:1012900002B0BDEC088BBDE8F08100BFE421002462
:1012A000CC1B0024524B2DE9F74F93F800A0BAF164
:1012B000000F00F099804F4B00274F4D1E68B84635
:1012C0002A68DFF86491B61ADFF860B10093642EE3
:1012D000A8BF6426B74261DA02F0A4FE5946D9F8E5
:1012E000002004464548FFF78FFC02F09BFE444A6D
:1012F00013681844041B146002F094FE414CD9F8A2
:101300000020214601905846FFF7FEFC02F08AFEBD
:101310003D49019B0A681044C31A20460B60D9F866
:101320000010FFF760F800232B21235420461DF006
:1013300049FAC0B92D2120461DF044FA98B92A2156
:1013400020461DF03FFA70B92F2120461DF03AFAD1
:1013500048B92E4920461DF0BDFE20B92C49204633
:101360001DF0B8FE60B102F05DFE04462548FFF7AF
:10137000DFFC02F057FE274A13681844001B106078
:101380002B684FF47A710137013393FBF1F22B6034
:1013900001FB1233002B08BFD0469BE7B8F1000FCA
:1013A00018D01D491D4802F057FB296842F21072FF
:1013B00091FBF2F302FB131363B91949174802F0CA
:1013C0004BFB29680A22154802F085FB1549134892
:1013D00002F05AFB009B2A681B689A4204DB03B0A8
:1013E000BDE8F04FFFF784BD03B0BDE8F08F00BF4C
:1013F000CC1B0024E81B00249C180024C41A0024E1
:10140000E01B0024A0180024DC1B0024F23906088D
:10141000F9390608E41B00244C3A0608E4210024AC
:10142000CB4F0608023A0608C41B0024A01900246A
:1014300010B5064C0649204602F099FC2046054AA4
:101440000549BDE810400BF00BBA00BFD01B0024CB
:101450005C53060800000024D93C040810B5094C70
:101460004FF4E131074800F00BFF204600F042FD49
:101470000028FAD0002002F011FEBDE8104002F072
:10148000B1B900BFE42100242DE9F043654C237875
:101490002DED048BADF5517D0BB1FFF703FF6248D5
:1014A00000F008FE00280FDD02F0BCFD0A2206460F
:1014B0005D4905A802F0F4FB05A802F027FD079B93
:1014C0005BB905A802F008FC0A2002F0B7FD0DF593
:1014D000517DBDEC048BBDE8F0835449524802F0C5
:1014E000BBFA05A9504802F0C5FA514988A802F094
:1014F0003EFC88A905A802F0A3FC054600B12578AA
:1015000088A802F0E9FB55B14A49474802F0BCFA05
:10151000002349492370444802F0B6FA73E0474972
:1015200048A802F024FC48A905A802F0BAFCD0B9EA
:10153000434988A802F01BFC02E048A8BFE1FCE791
:1015400088A905A802F0ADFC0546002800F0D88166
:101550002378002B40F0D281002D40F0D28148A8A2
:1015600002F0BAFBD5E10025F2E73038092801D9AD
:101570000135CFE12C46079B9C4203D3A5420ADBF1
:101580003049C8E7214605A802F09DFC30380928FB
:10159000F4D80134EFE723462A4605A908A802F04B
:1015A00095FC08A802F0DCFC0546079B9C4206D38C
:1015B000079B224605A948A802F088FC09E02146BD
:1015C00005A802F080FC1CF0DBF80028F0D0013404
:1015D000EBE7002D01DD4A9B23B91B49124802F0BD
:1015E00053FA0AE048A988A802F0E2FB294688A835
:1015F000FFF71CFC88A802F06FFB48A802F06CFB08
:1016000008A802F069FB084802F02EFA59E708B171
:101610000E4980E72478FCB10D49034802F034FA02
:101620000C4978E7CC1B0024E4210024303A06085A
:10163000333A0608383A06084E3A0608613A060870
:10164000683A0608A13A06086F3A0608ED3A060815
:10165000FC3A0608393806084FF48072214608A87B
:101660001CF086FD4FF49072214688A81CF080FD86
:101670004FF48072214648A81CF07AFD079D08A906
:1016800005982A46FEF799FE039002F0CBFC04462B
:10169000039A88A908A8FFF7B7FA804602F0C2FCAF
:1016A000041B02F0BFFC0746424648A988A8FFF782
:1016B000EBFA814602F0B6FCC71B9D499D4802F03B
:1016C000CBF9414688A8202928BF2021FEF73EFEFD
:1016D0009949984802F0C0F90A222146954802F03B
:1016E00026FA9649934802F0CFF99549914802F0BD
:1016F000B3F90A2239468F4802F019FA8F498D480A
:1017000002F0C2F98F498B4802F0A6F98E498F4B3F
:101710008848B9F1000F08BF194602F0B5F9DDEDB0
:10172000037A8B49B8EE676B07EE904A8148B8EEB2
:10173000674B9FED7D3B26EE036B86EE047BF7EE59
:10174000C79B07EE907AB8EE675B86EE057BB7EE37
:10175000C79B07EE905AB8EE677B27EE037B87EEB8
:10176000046BF7EEC68B87EE056BB7EEC68B02F007
:1017700073F9B7EEE97A02236E48009353EC172B06
:1017800002F076FA73496B4802F07EF972496948B3
:1017900002F062F9B7EEC97A02236648009353EC6F
:1017A000172B02F065FA6B49624802F06DF96B493C
:1017B000604802F051F9B7EEE87A02235D480093E1
:1017C00053EC172B02F054FA62495A4802F05CF9C4
:1017D0006349584802F040F9B7EEC87A02235548E9
:1017E000009353EC172B02F043FA5A49514802F088
:1017F0004BF902F017FC801B3C445A4907EE100AD3
:1018000007EE904A4B48F8EE677AB8EE477A87EED3
:10181000878ADFED557A28EE278A02F01DF9B7EEA8
:10182000C87A02234348009353EC172B02F020FAA6
:101830004E49404802F028F948AC03992046FEF78B
:10184000D2FD00234A4923543A4802F005F92146C3
:10185000384802F019F92B2120461CF0B3FFD0B90B
:101860002D2120461CF0AEFFA8B92A2120461CF0ED
:10187000A9FF80B92F2120461CF0A4FF58B93D498B
:1018800020461DF027FC30B93B4920461DF022FCC4
:1018900000283FF4B8AE2046FFF74AFA041E3FF492
:1018A000B2AE09DD3549234802F0D6F80A222146B6
:1018B000204802F032F9A6E631492CE688A802F069
:1018C0000BFA03E088A802F007FA36E605A802F052
:1018D00003FA19F031FB88A802F0FEF948A802F0DB
:1018E000FBF908A8EBE7F9E7FBE7EFE748A802F008
:1018F000F3F9244905A802F091FA88E6002DF5D005
:10190000002588A802F0E8F948A802F0E5F9002DC2
:10191000EFD00025079B9D42BFF42CAE294605A8B9
:1019200002F0D1FA21E600BF0000000080842E41C1
:101930002F3B0608E42100244D3B06087A380608B0
:101940005F3B0608713B0608293A06082D3A06084F
:101950002D390608453906084E3906086639060845
:101960007B3906088C3B06080000C842DB380608B5
:10197000D9390608F2390608F9390608E5390608A2
:10198000B23B0608D93A060800207047002070478D
:1019900030B5A1F11004002500F00F02CD7302391B
:1019A0000009D3B2092ACCBF373330330B748C42D1
:1019B000F2D130BD2DE9FF470024061D05468A46B9
:1019C00090469946009423464FF0FF32B1213046AD
:1019D000CDE9014406F04AFD29682846DDE90C23DB
:1019E000CDE9002342464F694B465146B847009423
:1019F00023464FF0FF32C1213046CDE9014406F0C5
:101A000035FD204604B0BDE8F0872DE9D04F9B4658
:101A10000368924604469B6ADDE9088998470246B6
:101A20000B465046594619F029FE134302D00020B8
:101A3000BDE8D08F236820469B6A984702460B4634
:101A40004046494619F01AFE1343F0D11AEB080636
:101A5000236820464BEB09079B6B9847B94208BFA8
:101A6000B0422CBF01200020E2E701682DE9F041DF
:101A700014461D46096B0646884702460B4620461B
:101A8000294619F0FBFD134302D00020BDE8F08188
:101A9000DDE906233046A71845EB030817F1FF32AE
:101AA0003368196B48F1FF33884702460B463846C6
:101AB000414619F0E3FD1343E7D1336830469B6B91
:101AC0009847414508BFB8422CBF01200020DDE700
:101AD0002DE9D04F9B460368924604465B6ADDE9D8
:101AE0000889984702460B465046594619F0C6FDEC
:101AF000134302D00020BDE8D08F236820465B6AE4
:101B0000984702460B464046494619F0B7FD134335
:101B1000F0D11AEB0806236820464BEB09079B6BB4
:101B20009847B94208BFB0422CBF01200020E2E72D
:101B3000C3680BB19B6818477047C220704700000C
:101B4000244830B5037887B0BFF35B8F13F00104EE
:101B50001CD10AF095FEC8B11F4B66223B211F48DD
:101B6000CDE903435A23CDE901323D233C220093C2
:101B700057230CF01BFE194C194B164823600AF032
:101B8000A1FE184A204618490AF06AFE13480DF0D3
:101B900047F8164D1A22002329461048CDE90023A4
:101BA00000230022FFF706FF2B780446B52B04D153
:101BB0000F4B01221D600F4B1A7008480CF08CFE71
:101BC000B4FA84F0400907B030BD02480BF082F847
:101BD00019F0B2F9101C0024005A6202181C0024EB
:101BE000D83B060800000024A51D0408201E002480
:101BF00004000024141C002410B504460DF0ACFCB5
:101C00002146FFF7C5FE0DF0ADFC04F11001FFF712
:101C1000BFFE0DF0ADFC04F12001FFF7B9FE30204E
:101C200010BD000008B54DF659720021074813F0A9
:101C300000FDBFF34F8F0649064BCA6802F4E0620D
:101C40001343CB60BFF34F8F00BFFDE7EC1B0024B5
:101C500000ED00E00400FA0510B50446FFF768FF48
:101C6000204610BD064B10B504460360806A08B1DB
:101C700009F01AFC201DFFF7EFFF204610BD00BF42
:101C80006048060800B5C3B01622172103A806F065
:101C900051FA4FF4A17302AA1021ADF808300023C5
:101CA00003A80093022306F090F903A8FFF7DAFFD8
:101CB00043B05DF804FB03A8FFF7D4FF19F03CF92B
:101CC0001D4B01211D4AA62070B51A6002F08EFA44
:101CD0000121A62002F00AFBFFF7D4FF184B43F2C4
:101CE000D2021A60FFF72CFF164B1B7833B1164B4C
:101CF0001B689A8840F209439A421BD8134B9B6D8C
:101D000003F46043B3F5004F14D002F079F9104D9D
:101D1000044602F087F9064602F084F9801BA842C7
:101D2000FAD902F06DF9001B642803D0BDE87040B9
:101D300017F0C0B870BD00BFEC1B00240040005875
:101D400000400052141C00240400002400440258E7
:101D50009F86010010B50446FFF784FFFC21204652
:101D60000BF004F8204610BD38B5074B0546044675
:101D700045F8BC3B0CF0B0FD28460BF017FA201DCF
:101D800006F0B4FB204638BD3866060810B5044698
:101D9000FFF7EAFF4FF4027120460AF0E7FF204602
:101DA00010BD0000034B10B504460360FFF7DCFFD5
:101DB000204610BDD83B060810B50446FFF7F2FFD9
:101DC0004FF4027120460AF0D1FF204610BD704743
:101DD0000B6803604B6843608B688360704710B585
:101DE0000446FFF7A5FE204610BD0020704770B5E1
:101DF00090F8343105461446F3B90368DB69984717
:101E000004F4706304F00F02B3F5407F04F0F003B4
:101E10000CBF07210821302B0CBF02230123012A0C
:101E200008D0901E42424241A869BDE87040006857
:101E300006F028BC0222F7E770BD10B590F83431E7
:101E400004462BB9A369186806F060FC0028F9D095
:101E500010BD38B590F834510446A5B983695BB11B
:101E6000186848B10368DB689847A36904211D60BE
:101E7000A0690AF07BFFA5610023C4F82831C4F8EB
:101E80002C31C4F8303138BD13B590F834310446E4
:101E90006BBBA369186806F00DFC40B30AF000F9AB
:101EA000A36901220DF10701186803685B6998476F
:101EB000D4F83031B3F5807F16D0D4F83031B3F593
:101EC000807F11D0D4F828319DF80720234483F86F
:101ED0002820D4F828310133DBB2C4F82831D4F8F3
:101EE00030310133C4F830310AF0F0F8D1E702B0F4
:101EF00010BD000008B590F834313BB1012002F06C
:101F00009DF80648BDE8084001F065BA82691AB13B
:101F10001368003318BF0123184608BDB0280024F9
:101F200070B504460D4601F056FA30B123682946D3
:101F300020461B6CBDE87040184770BDA0F5986046
:101F4000EEE7000013B590F8343104468DF8071021
:101F50002BB1C9B20B48FFF7E3FF02B010BDA36974
:101F6000186806F0D3FB0028F9D0A36901220DF10F
:101F70000701186803681B699847013018BF0120E2
:101F8000EBE700BFB02800242DE9F0410746884662
:101F9000164601F020FA80B10024A6420ED9351B66
:101FA00008EB04013846B5F5007F28BF4FF40075F3
:101FB0002A462C4400F048FFEFE704462046BDE8DF
:101FC000F081A0F59860DFE770B590F834310546F0
:101FD0000E4614462BB10F48FFF7D6FF04462046A5
:101FE00070BDAB69186806F091FB0028F9D0AB69A9
:101FF00001211868D0F8883088301B6B9847AB698E
:1020000022463146186803681B699847013008BFAB
:102010000024E4E7B028002430B50446C3B001F042
:10202000C5F90546D4F8D835C3F58073984203DD69
:10203000D4F8D855C5F580752A4601AB02A92046CB
:1020400000F0F9FF019902AB00226D1A1D44D4F88B
:10205000D835B3F5807F19D08A4217D0D4F8D83557
:10206000B3F5807F10D0D4F8D035A85C234483F832
:10207000D004D4F8D0350133DBB2C4F8D035D4F86D
:10208000D8350133C4F8D8350132E0E743B030BD6C
:1020900038B5044600F0BCFB2046FFF7BDFFD4F87E
:1020A000D855204600F0BCFB284638BDA0F5986006
:1020B000EEE7000010B590F8343104462BB1064825
:1020C000FFF7E6FF0446204610BD09F0E9FFD4F80B
:1020D000304109F0FBFFF6E7B028002438B504468C
:1020E00000F096FB2046FFF797FFD4F8D8354BB1A8
:1020F000D4F8D435234493F8D054204600F090FB14
:10210000284638BD4FF0FF35F7E7A0F59860E5E7C2
:1021100010B590F8343104462BB10B48FFF7DEFFC1
:102120000446204610BD09F0BBFFD4F830313BB166
:10213000D4F82C01044494F8284009F0C7FFF0E7D4
:102140004FF0FF34F9E700BFB028002438B504464B
:1021500000F05EFB2046FFF75FFFD4F8D835A3B14F
:10216000D4F8D435234493F8D054D4F8D43501337B
:10217000DBB2C4F8D435D4F8D835013BC4F8D8352F
:10218000204600F04DFB284638BD4FF0FF35F7E7FD
:10219000A0F59860DAE7000010B590F834310446F5
:1021A0002BB11148FFF7D2FF0446204610BD09F0BD
:1021B00077FFD4F830319BB1D4F82C31234493F815
:1021C0002800D4F82C310133DBB2C4F82C31D4F818
:1021D0003031013BC4F83031044609F077FFE4E7C1
:1021E0004FF0FF34F9E700BFB028002408B54FF4E2
:1021F000807200211BF0BCFF0022C0F80021C0F853
:102200000421C0F8082108BD10B4D0E900340968E1
:102210006210E4075DF8044B01EB020044BF8A58EA
:10222000D35818470146043008B5FFF7EDFF08BD45
:10223000034A0346C26007C983E80700704700BF2E
:10224000283C060810B586B004460391684606A9E6
:1022500080E80C0001E90C00204603A9FFF7E8FF25
:10226000204606B010BD37B56C46054684E80C0024
:1022700094E80C00FFF7E6FF284603B030BD0000ED
:1022800070B590F8343186B004460E46002B3BD131
:10229000856925B904200AF035FDA0610560A369B0
:1022A000186850BB8C200AF02DFD3346B4F922206B
:1022B0000546B4F9201006F011FDA3691D60B4F9BC
:1022C0002420531C06D0A0690321B4F926300068ED
:1022D00006F014FDA3691D68B5B1114B0026214617
:1022E00002A800936B4601960CCBFFF7BCFF324669
:1022F00002A9284606F078FA03E0314606F0AFF965
:10230000DDE702A8FFF76BFD06B070BD8C21284603
:102310000AF02CFD18F010FE02A8FFF760FDF9E7A7
:10232000891E040808B5FFF77DFF08BD08B5FFF753
:10233000F9FF08BD2DE9F84300242D4D4FF47A78BC
:102340002C4F202605F128002F60EC61C5E90148DB
:10235000C5E90564FFF74AFF01230E2085F83431F3
:1023600001F034FE244D81460D2001F02FFEA5F82A
:1023700020904FF6FF79688405F128002F60EC610A
:10238000A5F82490A5F82690C5E90148C5E905649B
:10239000FFF72CFF85F834410F23184D2B8456236B
:1023A00005F128002F606B845823EC61AB8459231E
:1023B000C5E90148EB84C5E90564FFF717FF85F817
:1023C000344198230E4D2B84992305F128002F606A
:1023D000EC616B84A5F82490A5F82690C5E9014826
:1023E000C5E90564FFF702FF85F83441BDE8F883CD
:1023F000E42100243C3C06083C1E0024741F0024F9
:10240000AC200024002070477047704710B5D0F80A
:102410008C452CB123682046DB6A9847A468F8E70E
:1024200010BD38B50D46D0F88C4534B12368204630
:102430002946DB689847A468F7E738BD004870472D
:10244000FC3C0608054B10B50446036007F0CBFEC4
:10245000204607F0D9FF204610BD00BF7C3C06088F
:1024600010B50446FFF7EEFF4FF4B26120460AF0C4
:102470007DFC204610BDF7B5002305460E46D0F87A
:102480008C45A4B1236831460DF1030220461F6933
:1024900001ABB8479DF803100346042905D0019A03
:1024A000284607F0AFF903B0F0BDA468E9E7019A48
:1024B0009DF80310F4E770B505460E4622B10021E1
:1024C000BDE8704006F0AABFD0F88C455CB1236827
:1024D0000022314620465B69984710B10121284609
:1024E000EEE7A468F2E72146F9E770B50E46054627
:1024F000D0F88C4500213CB12368314620469B69C9
:102500009847A4680146F6E72846BDE8704007F002
:1025100079B8F8B505460E461746D0F88C453CB15B
:10252000236820463A463146DB699847A468F6E7B7
:1025300028460121BDE8F84007F0C2B870B5002177
:1025400086B0044607F0A9FA00234FF48975A188E4
:10255000EF26ADF806302389ADF8045002258DF83A
:1025600010301B0AE2888DF8113040F201238DF8FB
:102570000750ADF8123040F203138DF809500125D1
:10258000ADF8143004F10A038DF8086005AE8DF83B
:102590000A501C468DF80C1001AD090A8DF80E206A
:1025A000120A8DF80B008DF80D108DF80F202A46B9
:1025B000083303CAB24243F8080C43F8041C15461A
:1025C000F5D1128820461A8006B070BDF8B50024F7
:1025D00006460D46274630461CF052FBA04207D95E
:1025E000335D05F8143005EB440301345F70F2E706
:1025F000400000F0FE00F8BD38B50446D0F88C5518
:1026000035B12B6828465B6A984710B9AD68F7E783
:10261000284640F2023304F24A51A4F84835FFF745
:10262000D5FF94F84835184484F8480504F5A960A6
:1026300038BD000040F2023300F20A5110B50446E2
:10264000A0F808350548FFF7C1FF94F8083518448D
:1026500084F8080504F5A16010BD00BF683C0608B9
:1026600040F2023310B50446A0F8C83400F2CA4064
:10267000FFF7C2FA94F8C834184484F8C80404F583
:10268000996010BD2DE9FF4100231D4A044600F565
:102690004E788DF80A30092590F888350192FA2293
:1026A0008DF8083001238DF80C208DF80930C023F7
:1026B0008DF80B3001AB03CBC4F83803C8F8041015
:1026C00088F80820D4F88C658EB133680021304634
:1026D0009B689847478805F54E7300F10901093F4B
:1026E000E0183A463D441BF045FCB668ECE784F838
:1026F0003A5340462D1284F83B5304B0BDE8F081B4
:102700000902FFFF73B504460D46164615F018FB87
:102710004FF4807301462A4620460093334607F063
:102720002FFE024B2046236002B070BD7C3C0608A1
:1027300010B5D0F88C350446A3B9C0F88C1594F8C0
:10274000883508464A790B7194F88835134484F823
:1027500088350B689B6A984723891844208101209B
:1027600010BD13469A68002AFBD19960E7E71FB5B0
:10277000044607F08DF90146684606F087FB4021C4
:10278000684606F0F5FBD4F88C4534B123686946F9
:1027900020461B6A9847A468F7E7684606F07DFB69
:1027A00004B010BD684606F078FB18F0C5FB10B504
:1027B0000446FFF7DCFF2046BDE8104007F04FB9A4
:1027C0000F4808B50378BFF35B8FDB0711D40AF01D
:1027D00057F870B140F25B2242F241310948FFF7ED
:1027E00091FF07480AF06EF8074A084905480AF0C1
:1027F00037F8044808BD02480AF06CFA18F09CFB50
:102800001C23002420230024000000244524040865
:1028100010B5FFF7D5FF0368BDE810405B6F1847A0
:1028200010B5FFF7CDFF0368BDE810409B6F184758
:1028300010B5FFF7C5FF0368BDE81040DB6F184710
:1028400006F0CCBC06F0E0BC06F0B8BC70477047A0
:102850007047436A93F878007047D0F8A404704733
:102860000120704700487047683E06082DE9F04790
:1028700094B004460F464B22002101A81BF078FCBF
:102880002679D4F8A434751C94F80E90002B94F893
:102890000C80EDB294F80DE014BF05200020002F4D
:1028A00040F0938040F2092309218DF81D0042F287
:1028B0000540ADF804304FF481738DF815100121F7
:1028C000ADF808308023ADF81E0010208DF80B30D5
:1028D00032234FF0040A24278DF80C3008234FF0E0
:1028E000030C4B228DF80D300B238DF819101D347D
:1028F0008DF80E3040F202238DF81C10ADF8103028
:1029000002238DF8210005208DF822108DF8251066
:102910008DF8271006218DF806208DF80F608DF8B0
:1029200012308DF817608DF81A308DF81B308DF845
:1029300023008DF826C08DF82A308DF82B108DF8E5
:102940002C008DF816A08DF824708DF828A08DF835
:1029500029708DF82D708DF82E1007218DF82F60BD
:1029600041F202068DF831108DF8411040F2075106
:102970008DF83050ADF8366040F209468DF83A5087
:1029800040F602258DF832008DF842002046ADF861
:1029900048100DEB0A018DF833908DF834C0ADF876
:1029A0003860ADF83C508DF843808DF844308DF898
:1029B00046308DF84AE08DF84B308DF84D301BF0E5
:1029C000D9FA204614B0BDE8F0870020FAE70000ED
:1029D0000A4B10B504460360FFF7F2FE07F003FC54
:1029E00004F5247006F05EFB04F17C0006F05AFB4F
:1029F00004F1700006F056FB204610BD283E060884
:102A000010B50446FFF7E4FF4FF4956120460AF045
:102A1000ADF9204610BDFFF70BBF0000034B10B50A
:102A20000446036006F0FAF9204610BD443D06084E
:102A300010B50446FFF7F2FF282120460AF096F968
:102A4000204610BD034B10B50446036006F0E6F9BE
:102A5000204610BD143D060810B50446FFF7F2FFEE
:102A6000342120460AF082F9204610BD034B10B5F0
:102A70000446036006F0D2F9204610BD2C3D06083E
:102A800010B50446FFF7F2FF382120460AF06EF930
:102A9000204610BD38B51E4B0D4604464FF400725B
:102AA0001968C0F80F1099889B79A0F813100221BB
:102AB0004375284606F052FA4FF400722073022143
:102AC000284606F050FA4FF400726073032128463E
:102AD00006F044FAA073284606F0E0F920B9AF22C8
:102AE0000C490D4809F0E4F904F185020023C4F80B
:102AF000882204F2992284F8783084F88430C4F86B
:102B00008C3284F89832C4F89C24C4F8A03438BDC0
:102B1000603D0608033E06080E3E06082DE9F34117
:102B200004460E461546FFF783FEF28823799A4243
:102B300037D1002D35D17778012F2ED1F378202B86
:102B400027D13289072A24D104F10F0804F1160590
:102B5000404629461BF0DCF9D0B1D4F81630C4F851
:102B60000F30638B207CE17BA4F8133001EB002154
:102B7000E57C607C237F01EB00410095A07C25680B
:102B8000637501EB0061237D2046627D6D6BA84774
:102B90003D46F378212B08BF0125284602B0BDE849
:102BA000F0810025F9E710B50446FFF741FEFFF775
:102BB00007FE217B07F0B4F904F1850304F17C00E2
:102BC000C4F888320023C4F88C3284F8843006F0CC
:102BD0001EFA94F884302BB923682046DB6BBDE8DD
:102BE0001040184710BD000070B50446FFF720FEE6
:102BF000D4F8A0542DB140F2DD120F490F4809F06E
:102C000057F904F29923C4F89C34FFF7D9FD617B8E
:102C100007F0E4F884F89852C4F8A00404F524708E
:102C200006F0F5F994F898322BB9236820469B6B8F
:102C3000BDE87040184770BD033E06086C3D0608AD
:102C40000022C2607047000002232DE9F041437169
:102C500000230446054683609046144B04F17C062D
:102C600045F8703B284606F0C5F9304606F0C2F933
:102C700004F52477384606F0BDF9C4F8A484FFF7BC
:102C80009FFD2146FFF754FD0CE0384606F00AFA96
:102C9000304606F007FA284606F004FA18F04CF918
:102CA000F6E7F8E72046BDE8F08100BF283E0608B9
:102CB00070B504460D46FFF7BBFD84F87850002D33
:102CC0003ED194F8843033B1FFF77AFD217B06F0D2
:102CD000FFFE84F8845004F1850304F17C0600258E
:102CE0003046C4F88832C4F88C5206F090F9304669
:102CF00006F086F928B94FF4A2721449144809F075
:102D0000D7F894F8983233B1FFF75AFD217B06F0DB
:102D1000DFFE84F8985204F2992304F52475C4F870
:102D20009C3400232846C4F8A03406F070F92846E5
:102D300006F066F920B94FF4A77204490548DEE7AA
:102D400004F17000BDE8704006F061B9033E06086A
:102D50007A3D06088B3D060810B50446FFF768FD6E
:102D600000212046BDE81040FFF7A2BF38B50D4650
:102D70000446FFF75DFD042D05D020460021BDE887
:102D80003840FFF795BF38BDF8B5164604460D46E6
:102D90001F46FFF74DFD0423EA88337023799A42DA
:102DA00025D16978012922D1EA78212A08D0222A5E
:102DB0000BD0202A4FF000001BD13070163401E0F8
:102DC0000F34317007203C60F8BDAB88204613F00B
:102DD000010308BF1946FFF76BFFAB8803F001033F
:102DE000E366AB8803F00203A3660223337000207E
:102DF000EAE703233370E7E710B58AB00446FFF72C
:102E000007FD684605F0FAFF0D4B694604F17000B6
:102E10000093099406F013F92046FFF701FD094BD2
:102E2000002168461A6805F0AFFF6846FFF7F6FD17
:102E30000AB010BD6846FFF7F1FD18F07DF800BF3D
:102E4000443D0608683D060870B58EB004460E463F
:102E50001546FFF7DDFC01A805F0D0FF114B01A9D5
:102E600004F17C00019300230C958DF83430CDE9FA
:102E70000A4606F0E4F82046FFF7D2FC0A4B002190
:102E800001A81A6805F080FF04E001A8FFF7DAFD49
:102E900018F052F89DF8344001A8FFF7D3FD204602
:102EA0000EB070BD143D0608683D060810B5044616
:102EB000FFF7BEFC94F884307BB9D4F88C3263B150
:102EC000FFF77EFCD4F88C3204F18502217B06F0FA
:102ED000C5FF10B1012384F8843010BD2DE9F843FB
:102EE0001E460446894690469DF82070FFF790FCE8
:102EF0000023336094F87830E3B194F88430CBB990
:102F0000D4F88C52C5F50075454528BF4546B8F143
:102F1000000F05D02A464946D4F888021BF02AF84B
:102F2000D4F88C322B44C4F88C32356017B120466B
:102F3000FFF7BCFF2046BDE8F843FFF771BCF0B5D2
:102F40000446406A85B0012690F878502DB984F87F
:102F500030503546284605B0F0BD04AB0027D4E913
:102F60000A1243F8047D0096FFF7B8FF0399E36A5D
:102F7000A26A5B1A0A44E362A26213B984F8306061
:102F8000E8E7606A3D46FFF791FFE3E72DE9F0438C
:102F90001C4691B0054689469046FFF739FC002C47
:102FA0004FF0000602A806BF01AC012700272660EB
:102FB00005F024FF134B02A905F5247002938DF848
:102FC0003C708DF83D60CDE90B59CDE90D8406F0DC
:102FD00036F82846FFF724FC0B4B314602A81A6846
:102FE00005F0D2FE04E002A8FFF740FD17F0A4FFB1
:102FF0009DF83D4002A8FFF739FD204611B0BDE81D
:10300000F08300BF2C3D0608683D060810B5D0F8D7
:10301000A034044673B990F898325BB9FFF7D0FB3F
:103020004FF4007304F29922617B06F079FE0123CC
:1030300084F8983210BD70B504461E460023084639
:10304000336094F87830EBB194F89832D3B9D4F86F
:10305000A054D4F89C14954228BF15462A461AF06D
:1030600089FF3560D4F89C34D4F8A0242B44551B38
:10307000C4F89C34C4F8A05425B92046BDE870407B
:10308000FFF7C4BF70BD37B50446406A90F878506A
:103090002DB984F835500125284603B030BD02AB68
:1030A000002243F8042DD4E90A12FFF7C4FF019966
:1030B000A26A0A44A262226B13680B44136001994E
:1030C000E36A5B1A94F83410E36209B9126802B932
:1030D0001BB9012384F83530DEE7606A0025FFF76D
:1030E00095FFD9E710B504460021FFF7A9FD20465A
:1030F00010BD10B50446FFF7F5FF204610BD10B413
:10310000D0E9003409686210E4075DF8044B01EB74
:10311000020044BF8A58D35818470146043008B506
:10312000FFF7EDFF08BD0000034A0346C26007C970
:1031300083E80700704700BF543D060810B586B00D
:1031400004460391684606A980E80C0001E90C00DA
:10315000204603A9FFF7E8FF204606B010BD37B5AB
:103160006C46054684E80C0094E80C00FFF7E6FF87
:10317000284603B030BD0000F0B58BB00546FFF720
:1031800057FB06ACFFF71CFBAF7B06460021204631
:10319000FFF7AFFF009403234FF400723946304627
:1031A00007F084F82046FEF71AFEFFF709FB234BD1
:1031B00006462F7B0293002329462046039302AB49
:1031C0000CCBFFF7CCFF009402234FF4007239467A
:1031D000304607F06BF82046FEF701FEFFF7F0FAE5
:1031E000174B06466F7B0493002329462046059320
:1031F00004AB0CCBFFF7B3FF009402234FF4007233
:103200003946304607F052F806E02046FEF7E7FD63
:1032100017F092FEF9E7F8E72046FEF7E0FDFFF72A
:10322000CFFA4FF40073D5F89C24697B06F078FD43
:10323000012085F898020BB0F0BD00BFA72B040851
:10324000E92B040808B5FFF768FF08BD08B5FFF7CC
:10325000F9FF08BD6FF01500704700290CBF6FF033
:10326000180000207047012070476FF0150070476C
:103270006FF0150070471120704770477047704716
:1032800003689B6C1847A0F59860F9E77047704792
:103290007047704710B50446012000F0CFFE94F847
:1032A000780010BDA0F59860F4E7000038B54FF045
:1032B000FF320123FF210B4809F0F6FE0A4D00F012
:1032C0009FFE044695F878301BB1012000F0B6FE51
:1032D000F8E700F095FE001BC728F6D9BDE8384096
:1032E000FEF7A0BCE82E0024B028002407B502ABEE
:1032F000012243F8041D1946FFF7A6FD18B10198F5
:1033000003B05DF804FB4FF0FF30F9E7A0F59560DE
:10331000FFF7ECBF07B5002302A9012201F8013D28
:10332000FFF734FE20B19DF8070003B05DF804FB01
:103330004FF0FF30F9E7A0F59560FFF7EBBF2DE9FF
:10334000F8430446884617461E46089DFFF770FA64
:10335000D4F8F095B9F1000F04D02B463246394627
:103360004046C847C4F8E085C4F8E475C4F8E86589
:10337000C4F8EC55BDE8F883B0F5966F03D1012190
:10338000014809F073BE7047E82E002400687047BA
:103390000C30704708B5FFF7FBFF0023036008BD42
:1033A000CB68C3600BB15B681847704738B50546FA
:1033B000FFF72EFA95F898325BB9D5F8A044B4F52A
:1033C000007F28BF4FF400742846FFF729FA2046F3
:1033D00038BD0024F8E790F878007047114B03F1EE
:1033E000780270B503600446C0F8A82400F2F456D1
:1033F00003F1D80200F23465E833C0F8AC24C0F819
:10340000C034AE4204D0103D2846FEF7E8FCF8E791
:1034100004F5956008F0CEF92046FFF7D9FA20466A
:1034200070BD00BF403F0608A0F59560FFF7D6BF0E
:10343000A0F2AC40FFF7D2BF10B50446FFF7CEFFB5
:103440004FF4C761204609F091FC204610BDA0F260
:10345000AC40FFF7F1BFA0F59560FFF7EDBF0000AE
:103460002DE9F74304461E468846154614F068FCCD
:10347000BDF82C3004F59567014601932A46BDF846
:103480002830204600933346FFF7DEFB0021384604
:1034900008F066F94FF47A73002504F2F45904F544
:1034A0009A60C4F8C8342946204B4E46C4F8C45428
:1034B00003F178022360C4F8A82403F1D802E833AA
:1034C000C4F8AC244FF48072C4F8C0341AF050FE33
:1034D000C4F8D055C4F8D455C4F8D85504F23465AE
:1034E00030461036FFF7FEFDB542F9D10023C4F88F
:1034F0003436C4F8F035B8F1000F13D02046FFF78A
:103500007BFC0FE04D4504D0103D2846FEF767FCDC
:10351000F8E7384608F04EF92046FFF759FA17F059
:103520000BFDF9E7204603B0BDE8F083403F0608F5
:10353000884238B5044606D00D46FEF7F9FA204613
:103540002946FFF72DFF204638BD08B5FFF720FFBD
:103550000068003018BF012008BD000010B5044607
:10356000FFF7F3FF28B940F202220649064808F0A7
:103570009FFCE068FFF70AFF03462046BDE81040C5
:10358000184700BF213F06082C3F0608F8B506463D
:103590000025FFF74DF906F2F454D6F83436AB4265
:1035A0000AD920462746FFF7D0FF103420B138460D
:1035B0000135FFF7D3FFF0E7F8BD0000044BC3600F
:1035C00003460A6843F8042B002242605A607047A1
:1035D0008C3E060813B50446019121B9FFF7DAFEC7
:1035E000204602B010BD01A9FFF7E8FFF8E710B4CC
:1035F000D0E9003409686210E4075DF8044B01EB80
:10360000020044BF8A58D35818470146043008B511
:10361000FFF7EDFF08BD0000034A0346C26007C97B
:1036200083E80700704700BF803E060810B586B0EB
:1036300004460391684606A980E80C0001E90C00E5
:10364000204603A9FFF7E8FF204606B010BD37B5B6
:103650006C46054684E80C0094E80C00FFF7E6FF92
:10366000284603B030BD00002DE9F04188B0044683
:10367000FFF7CEF8384B2046C4F8F035FFF7D0F806
:10368000364B04A8214602930023039302AB0CCBD4
:10369000FFF7DDFF2046FFF7BBF8D4F83406032818
:1036A00003D92046FFF7BCF80AE0431C04EB0010E6
:1036B00004A9C4F8343600F2F450FFF739FFF0E7FC
:1036C00004A8FEF78CFBBC2009F01CFB054606464F
:1036D000234B05F1400746F8043B3046FFF702FD57
:1036E0000021384609F084FD05F15408404609F0F0
:1036F0001DFD1C4B4FF480721821284600930023B7
:1037000009F0EEFD184904A8C4F8DC55FFF762FF84
:1037100004A9284609F07CFE10E0404609F046FD69
:10372000384609F08EFD3046FEF759FBBC2128468D
:1037300009F01CFB17F000FCF2E7F4E704A8FEF721
:103740004EFB2046FEF768FC08B0BDE8F08104A8F7
:10375000FEF745FBEEE7FAE7793304081920040881
:10376000085A0608983E0608AD320408A0F598608D
:10377000FFF77ABF0368184708B5FFF7FBFF08BDDE
:1037800008B5FFF742FF08BD08B5FFF7F9FF08BD10
:1037900037B50F4C0F4D204609F058FC2A460E490C
:1037A000204609F05DF842F2120301220B4CCDE9EC
:1037B000003200224FF4F85320461146FFF750FE26
:1037C0002A460749204603B0BDE8304009F048B812
:1037D000E82E00240000002473D00408B028002440
:1037E000DD330408034B00221A7008B11AF076BDCD
:1037F000704700BF680C002410B5044688B0C0B103
:10380000124B1B78DBB103A816F060FD042202AB5B
:1038100003A80DEB020116F0BBFD68B903A816F072
:10382000A5FD019B002BB8BF5B4293FBF4F204FBA8
:103830001234204608B010BD4FF0FF33F5E71AF000
:1038400055FD90FBF4F303FB1404F2E7680C00242D
:1038500008B519F019F82DE9F04F027D85B005463D
:103860000E46012A40F08E8000214FF0FF3B0446B7
:103870000B465F4694F804C048B2BCF1000F73D108
:1038800094F805C0BCF1000F6ED1B7F1FF3F17BF30
:103890000133012338465BB2934201DD1A46834669
:1038A0000131023408295DD1002402EB0B03A1464B
:1038B0000293CB4502DC029B4B4558DC95F8058012
:1038C00095F804A04FEA281708F00F080AF00F0334
:1038D0005FEA2A1AFAB201926FD05FFA8AF1BAF15E
:1038E000090F30460393D4BF3031573100F0B8F898
:1038F000039B0444092B3046039394BF03F130012A
:1039000003F1570100F0ACF80444BAF1000F02D102
:10391000039B03B94FB1092F019F3046D4BF303705
:103920005737F9B200F09CF80444B8F1090F30465B
:1039300094BF08F1300108F1570100F091F8B9F196
:10394000070F044404D03A21304600F089F80444BB
:1039500009F101090235B9F1080FAAD1204605B0D5
:10396000BDE8F08F074685E74FF0FF3098E7CB457D
:10397000EED1BBF1000FE6D13A21304600F070F8ED
:103980000444E0E700F1100700F11309002417F8E0
:10399000011B0A22304600F0D7F880462E2130461F
:1039A00000F05EF8B94540440444F0D10A22E97CB5
:1039B000304600F0C9F80444D0E7002B9AD1A9E7BB
:1039C000054B102210B50446036001750021043038
:1039D0001AF0CEFB204610BD5C40060870B5074DBE
:1039E0008374056000259DF810300575456085607D
:1039F000C56001744274C37470BD00BF5C400608AA
:103A000007B501210648FFF7DBFF002305481A46EA
:103A100019460093FFF7E2FF03B05DF804FB00BF17
:103A2000FC2E0024142F002470B5044608460D46D1
:103A30001BF026F923680246294620465B68BDE84C
:103A40007040184709B1FFF7EFBF08467047036899
:103A50008A685B680968184708B5FFF7F3FF08BD77
:103A600003681B68184700000149FFF7DDBF00BF6E
:103A7000DA7E060838B50546FFF7E9FF0446284612
:103A8000FFF7F2FF204438BD38B50546FFF7DAFFEF
:103A900004462846FFF7E8FF204438BD70B58AB0D9
:103AA0000D460023012A98BF0A220AA901F8043D05
:103AB000B5FBF2F402FB14562546F3B2092E94BF6F
:103AC00030333733DBB201F8013D002CF0D1FFF782
:103AD000B9FF0AB070BD2DE9F04107460E46154604
:103AE0002AB90368C9B21B68BDE8F04118470A2A21
:103AF00005D1002905DBBDE8F041FFF7CFBFD2B209
:103B0000F9E72D21FFF7ACFF04462A4671423846FB
:103B1000FFF7C4FF2044BDE8F08138B50546FFF744
:103B2000DAFF04462846FFF79FFF204438BD10B453
:103B30002AB90368C9B25DF8044B1B681847D2B2B2
:103B40005DF8044BFFF7AABFFFF7F1BF00000000CC
:103B500070B52DED068B0A9D064643EC182BB4EE8E
:103B6000488B002DB8BF0225F1EE10FA06D73C496C
:103B7000BDEC068BBDE87040FFF756BFB0EEC87BCA
:103B80009FED316BB4EE467BF1EE10FA01DD354965
:103B9000EEE79FED2F7BB4EEC78BF1EE10FA02DD5E
:103BA00031493046E4E79FED2C7BB4EEC78BF1EE54
:103BB00010FAF5D4B5EEC08BF1EE10FA11D52D2127
:103BC000B1EE488BFFF74CFF0446B6EE007B0023B6
:103BD000B2EE046BDAB20133AA4204DA87EE067B56
:103BE000F8E70024F1E738EE078B0A223046BCEEF6
:103BF000C89B19EE101AFFF751FF0444EDB1B8EE5F
:103C0000499B1A493046B2EE04ABFFF70DFF04445E
:103C100038EE498B15F1FF350FD328EE0A8B0A22B7
:103C20003046BCEEC89B19EE101AFFF737FFB8EE0E
:103C3000499B044438EE498BECE7BDEC068B2046EB
:103C400070BD00BFAFF30080FFFFFFFFFFFFEF7FFE
:103C5000000000E0FFFFEF41000000E0FFFFEFC1C8
:103C60006040060864400608684006084C3A0608AA
:103C7000FFF76EBF10B5044600F0C2F9E06023689C
:103C800020465B699847002808DA00F0B9F9E36834
:103C9000C01AA3689842F2D34FF0FF3010BD000065
:103CA00070B50D460B490446164600F060F82846EC
:103CB000FFF7E0FF00280BDBC1B2B14208D020467D
:103CC00000F0A1F8F3E7204600F006F817F034F909
:103CD000204670BD5C53060810B50446006808B164
:103CE00019F000FE204610BD10B50446006808B16A
:103CF00019F0F8FD00232360C4E9013310BD38B585
:103D000004460D46006801311AF00EFB10B1C4E9FB
:103D10000005012038BD036810B5044623B143688F
:103D20008B4201D3012010BD2046FFF7E8FF002899
:103D3000F9D0A368002BF5D122681370F3E770B5B2
:103D40000E46114604461546FFF7E5FF20B920460A
:103D5000FFF7CAFF204670BD2A463146A56020689D
:103D60001AF008F92268A3680021D154F2E738B5A7
:103D7000002304460D468360C0E9003339B108468C
:103D80001AF07EFF294602462046FFF7D8FF20465C
:103D900038BD88420B4610B5044604D0096821B1ED
:103DA0009A68FFF7CCFF204610BDFFF79DFFFAE7AA
:103DB000002310B504468360C0E90033FFF7E9FF34
:103DC000204610BD2DE9F04105461746884619B931
:103DD00000263046BDE8F0819AB18468144421463B
:103DE000FFF799FF06460028F2D0AB683A462868EC
:103DF000414618441AF0BEF82B680022AC601A55F0
:103E0000E7E70126E5E707B502AB012203F8011D4C
:103E10001946FFF7D7FF03B05DF804FB826808B5C9
:103E20002AB959B10878B0FA80F0400908BD006895
:103E300009B90078F7E71AF047FDF4E70120F5E744
:103E4000884270B515D083688A6893420FD183B1D8
:103E500004680D68013C14F8010F50B11CF0D0FC4F
:103E6000064615F8010B1CF0CBFC8642F3D000206F
:103E700070BD0120FCE710B5836814468A689B1A60
:103E8000A3420AD3006838B1096841B120441AF04E
:103E900065FFB0FA80F0400910BD0020FCE708463D
:103EA000FAE782688B689A4202D30022FFF7E3BFE9
:103EB0000020704783688B4203D9006810B1405CD2
:103EC000704700207047FFF7F5BF00009A42F8B531
:103ED0001D460F4688BF13460B491446064684BF4D
:103EE0002C461D46FFF743FFBA68A2420AD939683B
:103EF000AA4294BFC4EB0202C4EB0502304621443F
:103F0000FFF71DFF3046F8BD5C5306082DE9F04170
:103F10000768064617B3846804B33D46287805F160
:103F2000010819F02DFC48B9013C3C44207819F0F7
:103F300027FC28B1A54203D8013CF7E74546EDE749
:103F4000621CAF42A2EB0502B26003D2294638469A
:103F50001AF0AAF832680021B368D154BDE8F081A4
:103F6000006808B118F098BC7047000010B500F068
:103F700067F80A4CFDF7A4FEFEF722FCFEF717FCDB
:103F80004FF4E1310648FFF76FFBFDF767FAFDF7E5
:103F90007BFA002CFBD0AFF30080F8E700000000B4
:103FA000B028002470B505460024074EFDF7C5FD76
:103FB000E3B2984206D918461B010134F35EAB42C6
:103FC000F4D170BDFF20FCE74800002410B5044682
:103FD000FDF7B3FD84423BBF2401024B4FF0FF309D
:103FE000185F10BD4800002410B5044604F022FDFF
:103FF000204610BD10B5044604F01CFD204610BD3F
:1040000007B50749684604F052FD4FF47A72002361
:10401000DDE9000117F0E2FA03B05DF804FB00BF30
:10402000302F002407B50449684604F040FD00988D
:1040300003B05DF804FB00BF482F002409F008B965
:1040400008B5044804F000FD0348BDE8084004F04A
:10405000FBBC00BF482F0024302F002438B50A4C89
:104060000A4D204604F060FD2046094C2A460949C5
:1040700008F0F6FB204604F062FD2A462046064979
:10408000BDE8384008F0ECBB482F002400000024B5
:10409000302F0024F53F0408E93F040870B50446BA
:1040A000FDF74BFD844202D34FF0FF3070BDFDF7AA
:1040B00044FD8442F8D20E2C1B4B13D803EB04139F
:1040C000B3F9F060721CEFD0184B03EBC4035D68CA
:1040D000D5B9702008F016FE154A3146054603F0A2
:1040E00001FF09E022019E5E731CDDD00F4B03EB44
:1040F000C40353F8745CEBE70C4B0E2C03EBC404C5
:1041000094BF656044F8745C284603F0C5FE094B13
:104110001B68C3F110031841C8E77021284608F056
:1041200025FE16F009FF00BF480000240800002407
:104130000000C07F6C0C002470B504460D46164686
:1041400000211C221AF014F820463246294606F0B7
:1041500029FD204670BD00002DE9F04104460E46C1
:10416000FDF7EBFC84423CD21F4D2701EA19D068D1
:1041700010B11C2108F0FAFD2046FFF727FF80460A
:104180001C2008F0BFFD044600211C2219F0F0FF9E
:104190004146204606F003FDEB19012EDC6010D0ED
:1041A00006D3022E12D0204603F0C7FE022103E000
:1041B000204603F0C2FE00212046BDE8F04103F096
:1041C000C9BE2046BDE8F04103F0AABE204603F078
:1041D000B4FE0121F0E71C21204608F0C7FD16F0CF
:1041E000ABFEBDE8F08100BF4800002430B589B0C7
:1041F00004460D46FFF7D6FEC0B2FF2804D029467C
:10420000FFF7AAFF09B030BD012D14D00AD3022D4B
:104210001CD00222214601A8FFF78EFF01A806F05C
:104220005DFCEFE70022214601A8FFF785FF01A80A
:1042300006F054FCE6E71C22002101A819F098FFC3
:104240000022214601A806F0AFFCDBE7012221464F
:1042500001A8FFF771FF01A806F040FCD2E70000BB
:104260002DE9F34106460F46FDF767FC86422AD248
:104270001B4D4FEA061805EB0802D468ACB930466E
:10428000FFF7A4FE06461C2008F03CFD04461C2255
:10429000002119F06DFF00970023012231462046CE
:1042A00006F09BFC05EB0803DC600E4B0E491A463A
:1042B000D3F894008842FBD123683FB1A1680B601A
:1042C0004FF44073536102B0BDE8F081E1681B0414
:1042D000F5E71C21204608F049FD16F02DFE00BF31
:1042E00048000024006402580003008030B589B003
:1042F00005460C46FFF756FEC0B2FF2804D0214603
:10430000FFF7AEFF09B030BD1C22002101A819F053
:104310002FFF294601A806F05DFC094B09491A4602
:10432000D3F894008842FBD1019B2CB103990B6018
:104330004FF440735361E5E71B040499F7E700BFAE
:1043400000640258000300801EF0040F0CBFEFF35E
:104350000880EFF30980816911F8021C002932D12D
:1043600001B590E80F10E047BDE800508CE803006D
:10437000244B93E80600914208BF70471A6041B988
:104380001EF0100F10D1204B186820F001001860AB
:104390000AE02CE9F00F1EF0100F08BF2CED108A78
:1043A00081F822E0C1F838C0906B92F8221061F0D9
:1043B000FF0E1EF0100F08BFB0EC108AB0E8F00F2F
:1043C00080F309887047114A13689942FAD801B5F9
:1043D00052F821C00FC8E047BDE80050CCF80000FB
:1043E000704701B501F0D4FBBDE80140EFF3098C43
:1043F000BEE701B501F090FBBDE80140EFF3098C89
:10440000B6E70000840C002434EF00E034410608D5
:10441000014608B530B96FF0030000F01DFA6FF0E7
:10442000030008BD132001F091FF30B94FF0FF30B9
:1044300000F012FA4FF0FF30F3E70020F1E7000040
:1044400008B5EFF305832BB9EFF3108313B9EFF33E
:10445000118333B16FF0050000F0FEF96FF0050035
:1044600008BDDFF808C000DFFAE700BF1144040808
:10447000EFF310832BB9EFF31180003818BF012040
:1044800070470120704710B520B10378F32B01D19C
:10449000002906DA6FF0030102F02CFA6FF0030036
:1044A00010BD00F10C0353E8000F20EA010243E8BD
:1044B000002404B1F7E7F3E738B50546A0B18468F6
:1044C00002686CB114F0030302D1C1680F2926D829
:1044D00000246FF00801002002F00CFA204638BDDD
:1044E000C368002BF4D11546104BD3F8900078B177
:1044F00000F087FC0446A0B10123F322A37000233F
:10450000656022700A4AC4E90233084B5A66E5E73F
:1045100001221021D3F8800000F0FAFBEAE71546EB
:10452000EBE76FF0040102F0E5F9D7E7700C002427
:104530009D450408930710B502F0010422D400F150
:104540000C0384B153E8000F00EA01028A4203D051
:10455000BFF32F8F002005E020EA010243E800248A
:1045600004B1EFE710BD53E8000F084203D1BFF3D9
:104570002F8F002005E020EA010243E8002404B167
:10458000F1E7EFE7C06801EA00031CB1994218BFE8
:104590000020E7E7002B08BF0020E3E7F8B5054659
:1045A000846804B9F8BD94F823202846616AA76896
:1045B000FFF7C0FF064638B1204601F062FC00223A
:1045C0003146204601F0DCFD3C46EAE7F8B50D46F1
:1045D00017461E46044620B10378F32B01D100296B
:1045E00007DA20466FF0030102F084F96FF0030050
:1045F000F8BDFFF79FFF0028FAD186B1314643206E
:1046000001F0A4FE40B1074B20465E69314601F03F
:104610001DFC756286F823706FF00100E8E76FF00B
:104620000200E5E7700C002470B5054610B1037870
:10463000F32B07D028466FF0030102F05BF96FF00F
:10464000030070BD836863B1284601F011FC0022AD
:104650006FF0020101F094FDA8680028F4D101F088
:1046600075FCAB78002613F001032E700FD0094BB8
:104670002946D3F8904024B1204600F0DCFB3046B8
:10468000DFE7D3F8800000F078FB2046D9E7184632
:10469000D7E700BF700C00242DE9F041064620B199
:1046A0000378F32B01D1002909DA6FF003056FF0CD
:1046B0000301304602F01EF92846BDE8F08100F102
:1046C0000C0353E8002F42EA010543E8005000B113
:1046D000F7E7B4681CB9204601F038FCECE794F821
:1046E00023203046616AD4F80880FFF723FF07468D
:1046F00078B194F823309B0756BF656A054620EAD7
:104700000505204601F0BDFB00223946204601F098
:1047100037FD4446DEE70000024608B5EFF30583A7
:1047200033B100206FF0050102F0E4F8002008BD6D
:10473000FFF79EFE0028F4D11046DFF808C000DF26
:10474000F5E700BFB9440408024638B5EFF3058326
:104750004BB192B96FF003046FF00301104602F001
:10476000C9F8204638BDFFF783FE0028F1D1104676
:10477000DFF82CC000DF0446F3E71378F32BE9D110
:104780000029E7DB02F10C0353E8000F40EA0104C3
:1047900043E8004505B1F7E7104601F041FAE0E7CC
:1047A00099460408024608B5EFF3058323B1104685
:1047B000BDE80840FFF767BEFFF75AFE0028F6D1B4
:1047C0001046DFF808C000DF08BD00BF87440408BA
:1047D00038B504461D46EFF3058343B18CB9204636
:1047E0006FF0030102F086F86FF0030038BDFFF7A9
:1047F0003FFE0028F2D120462B46DFF824C000DF20
:10480000F4E72378F32BEAD1002DE8D10029E6DB89
:104810002046FFF78FFE002808BF6FF00200E5E793
:10482000CD450408024608B5EFF305833BB11046B9
:104830006FF0050102F05EF86FF0050008BDFFF7AC
:1048400017FE0028F3D11046DFF804C000DFF5E7BB
:1048500029460408704770477047EFF310832BB95F
:10486000EFF31180003818BF012070470120704716
:10487000064BDA6A3AB1D0695B6C1BB11B6998428E
:1048800028BF184670474FF0FF30F5E7700C002442
:10489000014BD868704700BF700C002408B5094B65
:1048A0001A7A022A08D0032A0AD04FF0FF3002F009
:1048B00015F84FF0FF3002E0032200201A7208BD05
:1048C0000120FCE7700C002470B5464C237A012BC4
:1048D00000F0858033B14FF0FF3001F0FFFF4FF063
:1048E000FF3070BD404DEB68E3652B8AD5E90B6165
:1048F000A4F85430AB683046236400F0F1F908B1F5
:10490000C4F88060D5E90561304600F0E9F908B9DE
:10491000D4F880606667D5E90761304600F0E0F9B9
:1049200008B9D4F88060A667D5E90961304600F07F
:10493000D7F908B9D4F88060E6676E6B3EB131688C
:104940003046D6E9022300F03BFAC4F88460AE6B2F
:104950003EB131683046D6E9022300F031FAC4F89E
:104960008860EE6B3EB131683046D6E9022300F034
:1049700027FAC4F88C602E6C3EB131683046D6E917
:10498000022300F01DFAC4F890606E6C3EB13168ED
:104990003046D6E9022300F013FAC4F89460AE6CF6
:1049A0003EB131683046D6E9022300F009FAC4F876
:1049B0009860EE6C3EB131683046D6E9022300F0D3
:1049C000FFF9C4F89C602D6D3DB129682846D5E9F2
:1049D000022300F0F5F9C4F8A0500123237200204F
:1049E0007FE700BF700C0024C440060870B5254D59
:1049F0002B7A012B07D06FF006004FF0FF3401F047
:104A00006DFF204670BD01F005FD10B94FF0FF307D
:104A1000F3E71D4AFF231D4E82F8223092F8223020
:104A2000D26863F0FF031A49C2F302227068DB43C5
:104A300014BFB3FA83F32023C3F12003934298BF3A
:104A4000531CFE2202FA03F30F4ADBB2D37701F0C4
:104A5000A1FF04460028D9D101F0F4FF286101F03C
:104A6000DDFF0C4801F004FA01F068FA3368DB0757
:104A70004CBF0223032383F31488BFF36F8F0223F9
:104A80002B72BEE7700C002400ED00E0C440060865
:104A9000F34304088C0C002408B50A4B1A7A023A36
:104AA000012A02D840B1012809D04FF0FF3001F0AF
:104AB00015FF4FF0FF3001E002221A7208BD0322F9
:104AC000FBE700BF700C002410B50F4C237A022BBB
:104AD00013D101F0ABFF01236372BFF34F8F0B4A79
:104AE0005168C90003D54FF000615160A3720423DF
:104AF0002372BDE81040FFF7BBBE6FF0070001F066
:104B0000EDFE002010BD00BF700C002400ED00E0A1
:104B100038B51E4C0546237A042B35D1FFF7A8FE85
:104B2000E26AA842034694BF00F1FF332B4612B15C
:104B3000D069C01AD061626C12B11069C01A1061DC
:104B4000E06803440544E360E368AB4213D1022309
:104B50000020237201F0FAF900236372BFF34F8F34
:104B6000A27A22B1A3724FF08052094B5A60BDE87D
:104B7000384001F053BF0133E36001F0A5F9236D24
:104B8000002BE1D09847DFE738BD00BF700C002450
:104B900000ED00E0704738B504460D46FFF75AFEB9
:104BA00029462046BDE8384001F05ABE08B5FFF757
:104BB000F1FFEFF3058333B16FF0050001F08EFED6
:104BC0006FF0050008BDFFF748FE0028F4D1DFF8BC
:104BD00008C000DFF6E700BFC948040808B5EFF3D6
:104BE000058333B16FF0050001F078FE6FF005002A
:104BF00008BDFFF732FE0028F4D1DFF808C000DF5F
:104C0000F6E700BFED49040808B5EFF3058333B1BB
:104C10006FF0050001F062FE6FF0050008BDFFF7C0
:104C20001CFE0028F4D1DFF808C000DFF6E700BF63
:104C30009D480408024608B5EFF3058333B16FF0D1
:104C4000050001F04BFE6FF0050008BDFFF705FE03
:104C50000028F4D11046DFF808C000DFF5E700BFF8
:104C6000994A040808B5EFF305832BB16FF00500EE
:104C700001F034FE002008BDFFF7EFFD0028F5D15C
:104C8000DFF804C000DFF6E7C94A0408024608B5A9
:104C9000EFF305832BB16FF00500BDE8084001F08C
:104CA0001DBEFFF7DAFD0028F5D11046DFF804C07D
:104CB00000DF08BD114B040808B5EFF3058313B1FD
:104CC000054BD86808BDFFF7C8FD0028F8D1DFF80C
:104CD0000CC000DFF6E700BF700C00249148040808
:104CE00010B598B140EA010313F007030ED117295C
:104CF0000AD90160083910220C18426084600B50F8
:104D000081684A60C3600123184610BD0023FBE799
:104D1000F0B580B399B132F003032CD10F3100F11B
:104D2000080521F007072B462D685C68E91A24F076
:104D30000304091B8F4204D929680029F3D10846CE
:104D4000F0BD46683A4304683E444660204450F84B
:104D5000041C08388E4288BF4660586818B903F1B1
:104D600008015A60EBE720F0030019181D504A6053
:104D700019600831E3E70021E1E730B590B1D9B11E
:104D8000A1F1080500F108040022AC420BD151F852
:104D9000043C23F0030443681B1B436042B941F801
:104DA000042C012030BD236822463BB11C46ECE7B1
:104DB00051F8083C1360F4E70846F3E71846F1E7BA
:104DC00030B5C0B189B1C2B1CBB100240160C360BC
:104DD0004361C0E9014202FB01F41D190561184657
:104DE000013904D1A21A99500121084630BD851815
:104DF00005602846F4E70146F7E71146F5E719464E
:104E0000F3E7034610B5A8B100F1140252E8000F11
:104E100010B9BFF32F8F04E0016842E8001404B119
:104E2000F4E738B1043353E8002F511C43E8001471
:104E300004B1F8E710BD30B5F0B1C3688B421BD8A0
:104E400003698B4218D900F114031A680A60BFF392
:104E50005F8F53E8002F0C689442F6D143E80015A9
:104E600005B1F2E7043050E8003F5A1E40E8002147
:104E700001B1F8E7002030BD6FF00300FBE7EFF36E
:104E800010832BB9EFF31180003818BF0120704751
:104E900001207047036B30B5E3B1CD780024DA7898
:104EA000AA420FD31A46C1E901248AB19160A4B184
:104EB0006160283050E8003F5A1C40E8002101B1F1
:104EC000F8E730BD5A681C46002AECD01346E6E7E6
:104ED000C162ECE7C1E90133C1620163E9E7D1E9ED
:104EE000013223B19A608A681AB153607047C26276
:104EF000F9E703637047F8B5877804468FB3C56850
:104F00000027014605F10C062846FFF7E8FF277049
:104F10003046FFF790FFAB68002B48D03046FFF7D4
:104F200070FF0446002842D0284600F0A1FF064644
:104F30003A46394601F024F9304600F0F5FF6A6A36
:104F40000646816804F10C0019F014F8F923A770E3
:104F50002370F368E37021462846BDE8F840FFF768
:104F600099BF8568AB68002BF5D05B78832BF2D1B5
:104F7000284600F07DFF06463A46394601F000F922
:104F8000304600F0D1FF06466A6A04F10C018068E1
:104F900018F0F0FFF3680BB1E2781A700023214695
:104FA00005F10C002370BDE8F840FFF744BFF8BDE1
:104FB0002DE9F0410C4617469846054618B103788E
:104FC000FA2B00D141B928466FF0030101F0A8FC8B
:104FD0006FF00300BDE8F0818368C3B15B78832B79
:104FE00015D100F045FF06460122002101F0C8F866
:104FF000304600F099FF06466A6A2146806818F03C
:10500000B9FFF0680028E5D007700020E2E705F15D
:105010000C00FFF7F6FE064670B121466A6A0C30B6
:10502000002418F0A7FFF923314628463370B470E6
:10503000F770FFF72FFFE8E7B8F1000F10D04146F7
:10504000932001F083F940B1074B2846596900F0DD
:10505000FDFEEFF30983C3E902476FF00100B9E7F2
:105060006FF00200B6E700BF700C00242DE9F84F86
:105070008846074638B131B1B0FA80F3B1FA81F110
:105080000B441F2B06DC6FF003010020002401F00D
:1050900047FC70E008F1030626F003060C3606FB19
:1050A00000F9F2B194683CB1A30702D1D368332B65
:1050B00005D86FF00801E8E7D368002BF9D1D2F8E2
:1050C00000A0D2E904533DB115F0030B01D199457D
:1050D00054D96FF00901D8E7002BFAD11CB19B46D7
:1050E0000CE092461546274BD3F8A000D8B1FFF745
:1050F00088FE0446A0B14FF0010B35BB214B0022C6
:105100004946D86FFFF704FE0546C0B9BBF1000F52
:1051100006D01C4B2146D3F8A00058B1FFF78BFEF8
:105120006FF00401B1E701223421D3F88000FFF7CA
:10513000EFFDDEE7D3F88000FFF71FFEF0E74BF04E
:10514000020B4A46002119F013F8FA233246394679
:1051500004F10C002370002384F802B0A360C4F8AB
:1051600004A0C4E90983C4E90B332B46FFF728FEEA
:10517000044B054A1A672046BDE8F88F002CE4D19D
:10518000B1E700BF700C0024F74E040800F12803BB
:1051900010B553E8002F12B9BFF32F8F04E0511E52
:1051A00043E8001404B1F4E70AB9002010BDC06A56
:1051B00001230028F9D0821CD2E84F1FC2E8443FE7
:1051C00004B1F9E711F0FF0FF0D08068F1E70000BB
:1051D0002DE9F0410F4615469846044618B103786C
:1051E000FA2B00D141B920466FF0030101F098FB82
:1051F0006FF00300BDE8F081FFF7C8FF0646002806
:105200003AD001462046FFF76AFE626A06F10C01B9
:10521000384618F0AFFE0DB1F3782B70002504F17D
:105220000C07314638463570FFF705FEA3680BB909
:105230000020DFE73846FFF7E4FD06460028F7D0F8
:10524000204600F015FE07462946012200F098FF8F
:10525000384600F069FE626A0746816806F10C0074
:1052600018F088FEF923B570314633702046FB688C
:10527000F370FFF70FFEDBE7B8F1000F10D04146E7
:10528000832001F063F840B1074B2046596900F0D4
:10529000DDFDEFF30983C3E902756FF00100A9E7B3
:1052A0006FF00200A6E700BF700C002408B5064BA3
:1052B00008219A6ED86EFFF7D9FE044BD864B0FA75
:1052C00080F04009404208BDC4400608700C00242C
:1052D0002DE9F04106460F4690461C46EFF3058344
:1052E0004BB196B930466FF0030101F019FB6FF036
:1052F0000300BDE8F081FFF7C2FD0028F1D1304680
:105300002346DFF848C000DFF3E73378FA2BE9D112
:10531000002FE7D0002CE5D106F10C00FFF771FD5E
:10532000054680B1726A39460C3018F023FEF92325
:105330002846AC702B7085F80380C5E9017600F033
:105340006FFC2046D5E76FF00200D2E7B14F0408AA
:10535000F8B504460F4616461D46EFF3058343B1E4
:105360008CB920466FF0030101F0DAFA6FF0030008
:10537000F8BDFFF784FD0028F2D120462B46DFF868
:1053800044C000DFF4E72378FA2BEAD1002FE8D0FD
:10539000002DE6D12046FFF7F9FE054670B100F179
:1053A0000C01626A384618F0E5FD0EB1EB783370F7
:1053B0002846EC6000F034FC0020D9E76FF00200D2
:1053C000D6E700BFD1510408EFF310832BB9EFF3F8
:1053D0001180003818BF012070470120704700007D
:1053E00070B5A8B38468D0E900566CB114F003031B
:1053F00002D1C2681B2A1AD800246FF008010020CD
:1054000001F07EFA204670BDC368002BF4D1124B28
:10541000D3F8940030B901221C21D3F88000FFF7A3
:1054200077FC01E0FFF7EDFC044660B10123F522B3
:10543000A3700023E670227065602376C4E902330E
:10544000C4E90433DEE76FF0040101F059FAD9E74B
:1054500005460646DBE700BF700C0024284B70B5FC
:105460005D6904460E4635B96FF0070101F048FA50
:105470004FF0FF3070BD10B10378F52B07D02046F8
:105480006FF0030101F03CFA6FF00300F2E7037ED6
:1054900053B9C0E90353EB6A436103B118610123B7
:1054A000EC6200202376E5E7C278D1070DD5C1680C
:1054B000A9420AD1FF2B06D16FF00F0101F020FAAB
:1054C0006FF00200D6E70133EBE7002EF8D0930728
:1054D0000AD5E06895F9203090F920209A4203DA45
:1054E00080F8203000F0D6FC3146532000F02EFF2B
:1054F00018B12946204600F0A9FC6FF00100B9E779
:10550000700C00242E4B5A6970B5044632B96FF006
:10551000070101F0F5F94FF0FF3070BD10B10378CD
:10552000F52B07D020466FF0030101F0E9F96FF089
:105530000300F2E7037E33B96FF00E0101F0E0F9EA
:105540006FF00200E9E7C168914202D06FF00D01EF
:10555000F4E7013BDBB2037613BB43690BB101698E
:1055600019612169F1B14B6192F92130D56ADDB938
:1055700082F82030A36883B1204600F079FC06460B
:105580002A46294600F0FCFDF36AC4E9036563611D
:1055900003B11C610123F4622376002000F0D6FCE5
:1055A0000020BAE7D362DFE7E978890706D5A96862
:1055B00021B191F920108B42B8BF0B466D69D6E737
:1055C000700C002470B5044610B10378F52B07D099
:1055D00020466FF0030101F093F96FF0030070BDF6
:1055E000037EBBB16369C0680BB122691A6122698D
:1055F00002B3536190F92120C36AEBB990F92030CE
:10560000934203D080F8202000F044FCA068F8B951
:1056100000F09CFCA078002610F001002670DED07F
:10562000134B2146D3F89450DDB12846FFF703FC15
:105630003046D4E7C362DDE7D978890706D5996893
:1056400021B191F920108A42B8BF0A465B69D4E7BC
:10565000204600F00DFC00226FF0020100F090FDEA
:10566000D4E7D3F88000FFF788FB2846B7E700BFF0
:10567000700C00242DE9F0410446002601270CB9E6
:10568000BDE8F081E378D4F814801B0712D5A36835
:1056900026767BB1204600F0EBFB00220546114642
:1056A00000F06EFDEB6AC4E90356636103B11C614F
:1056B000EC6227764446E2E710B4C3789B071DD519
:1056C000C06890F92120C36ADC78A40709D59C68DA
:1056D0008C4208BF8C6824B194F92040A242B8BF24
:1056E00022465B69002BEFD190F92030934205D020
:1056F00080F820205DF8044B00F0CCBB5DF8044B33
:1057000070470000024608B5EFF3058333B100206F
:105710006FF0050101F0F4F8002008BDFFF754FE1A
:105720000028F4D11046DFF808C000DFF5E700BF1D
:10573000E1530408024608B5EFF305833BB1104678
:105740006FF0050101F0DCF86FF0050008BDFFF710
:105750003BFE0028F3D11046DFF804C000DFF5E778
:105760005D540408024608B5EFF305833BB11046CB
:105770006FF0050101F0C4F86FF0050008BDFFF7F8
:1057800023FE0028F3D11046DFF804C000DFF5E760
:1057900005550408024608B5EFF305833BB11046F2
:1057A0006FF0050101F0ACF86FF0050008BDFFF7E0
:1057B0000BFE0028F3D11046DFF804C000DFF5E748
:1057C000C5550408EFF310832BB9EFF311800038AF
:1057D00018BF01207047012070470C30D0E85F3FB0
:1057E00013B9BFF32F8F04E05A1EC0E8512F01B147
:1057F000F4E798B2003818BF0120704730B500F1C7
:105800000C02C189D2E85F3F994202D8BFF32F8FC3
:1058100004E05C1CC2E8554F05B1F3E7C0899BB2B8
:10582000984294BF0020012030BD0000F8B5154615
:105830004FF6FE73421E06460F469A4201D8884232
:1058400007D26FF003010024002001F05FF820462A
:10585000F8BD7DB1AC682A6844B114F0030302D1ED
:10586000E9680F2922D86FF00801ECE7EB68002BFC
:10587000F9D11546114BD3F8980080B1FFF7C1FA62
:105880000446A8B10123F622A370002365602270AC
:10589000A3600B4A094BA781E6819A66D7E70122EC
:1058A0001021D3F88000FFF733FAE9E71546EAE75D
:1058B0006FF0040101F02AF8C9E700BF700C002462
:1058C000C5580408836810B504465BB1FFF785FF2F
:1058D00040B1204600F0CCFA0022BDE8104011464D
:1058E00000F04EBC10BD38B5054610B10378F62B5C
:1058F00007D028466FF0030101F008F86FF00300AD
:1059000038BD84683CB100F0B3FA0122002100F0F8
:1059100037FC0020F4E7FFF771FF38B928466FF035
:10592000100100F0F3FF6FF00200E9E72046E7E71F
:1059300038B50D46044610B10378F62B07D0204643
:105940006FF0030100F0E2FF6FF0030038BDFFF7D6
:1059500044FF68B975B12946632000F0F7FC20B117
:10596000064B2046596900F071FA6FF00100EDE72F
:105970000020EBE76FF00200E8E700BF700C0024A6
:1059800070B5054610B10378F62B07D028466FF0A6
:10599000030100F0BBFF6FF0030070BD836863B1CB
:1059A000284600F065FA00226FF0020100F0E8FBE3
:1059B000A8680028F4D100F0C9FAAB78002613F0EB
:1059C00001032E700FD0094B2946D3F8984024B11B
:1059D0002046FFF730FA3046DFE7D3F88000FFF7C4
:1059E000CCF92046D9E71846D7E700BF700C002451
:1059F00010B50446EFF3058333B100206FF00501C5
:105A000000F084FF002010BDFFF7DCFE0028F4D179
:105A10002046DFF808C000DFF5E700BF2D58040876
:105A2000024608B5EFF3058343B182B910466FF023
:105A3000030100F06BFF6FF0030008BDFFF7C2FE2B
:105A40000028F2D11046DFF824C000DFF5E7137814
:105A5000F62BEBD10029E9D11046FFF7BEFE002856
:105A600014BF00206FF00200E7E700BF31590408BF
:105A700010B50446EFF3058343B184B920466FF0B7
:105A8000030100F043FF6FF0030010BDFFF79AFE23
:105A90000028F2D12046DFF830C000DFF5E7237898
:105AA000F62BEBD12046FFF7A9FE20B1204600F0EF
:105AB000B7F80020E9E720466FF0100100F026FF5C
:105AC0006FF00200E1E700BFE7580408024608B59E
:105AD000EFF305833BB110466FF0050100F016FFB0
